{"contractName":"MobilityCampaigns","abi":[{"inputs":[],"stateMutability":"nonpayable","type":"constructor"},{"anonymous":false,"inputs":[{"indexed":false,"internalType":"address","name":"owner","type":"address"},{"indexed":true,"internalType":"uint256","name":"campaignId","type":"uint256"}],"name":"CampaignCompleted","type":"event"},{"anonymous":false,"inputs":[{"indexed":true,"internalType":"address","name":"owner","type":"address"},{"indexed":true,"internalType":"string","name":"organization","type":"string"},{"indexed":false,"internalType":"string","name":"title","type":"string"}],"name":"CampaignCreated","type":"event"},{"anonymous":false,"inputs":[{"indexed":true,"internalType":"uint256","name":"campaignId","type":"uint256"},{"indexed":false,"internalType":"string","name":"threadId","type":"string"}],"name":"CampaignResultsReleased","type":"event"},{"inputs":[{"internalType":"address","name":"","type":"address"}],"name":"activeCampaignOwners","outputs":[{"internalType":"uint256","name":"","type":"uint256"}],"stateMutability":"view","type":"function","constant":true},{"inputs":[{"internalType":"address","name":"","type":"address"}],"name":"campaignReceivers","outputs":[{"internalType":"bool","name":"","type":"bool"}],"stateMutability":"view","type":"function","constant":true},{"inputs":[{"internalType":"address","name":"","type":"address"}],"name":"dataProviders","outputs":[{"internalType":"bool","name":"","type":"bool"}],"stateMutability":"view","type":"function","constant":true},{"inputs":[],"name":"graphIndexer","outputs":[{"internalType":"address","name":"","type":"address"}],"stateMutability":"view","type":"function","constant":true},{"inputs":[],"name":"totalCampaignReceivers","outputs":[{"internalType":"uint256","name":"","type":"uint256"}],"stateMutability":"view","type":"function","constant":true},{"inputs":[],"name":"totalDataProviders","outputs":[{"internalType":"uint256","name":"","type":"uint256"}],"stateMutability":"view","type":"function","constant":true},{"stateMutability":"payable","type":"receive","payable":true},{"inputs":[{"internalType":"string","name":"_organization","type":"string"},{"internalType":"string","name":"_category","type":"string"},{"internalType":"string","name":"_title","type":"string"},{"internalType":"string","name":"_ipfsHash","type":"string"},{"internalType":"string","name":"_key","type":"string"}],"name":"createCampaign","outputs":[],"stateMutability":"payable","type":"function","payable":true},{"inputs":[{"internalType":"address","name":"_a","type":"address"}],"name":"getReceiveCampaign","outputs":[{"internalType":"bool","name":"","type":"bool"}],"stateMutability":"view","type":"function","constant":true},{"inputs":[{"internalType":"address","name":"_a","type":"address"}],"name":"getProvideData","outputs":[{"internalType":"bool","name":"","type":"bool"}],"stateMutability":"view","type":"function","constant":true},{"inputs":[],"name":"enableNewUser","outputs":[],"stateMutability":"nonpayable","type":"function"},{"inputs":[{"internalType":"bool","name":"_shouldReceive","type":"bool"}],"name":"toggleReceiveCampaign","outputs":[],"stateMutability":"nonpayable","type":"function"},{"inputs":[{"internalType":"bool","name":"_shouldProvide","type":"bool"}],"name":"toggleProvideData","outputs":[],"stateMutability":"nonpayable","type":"function"},{"inputs":[],"name":"getActiveCampaignId","outputs":[{"internalType":"uint256","name":"","type":"uint256"}],"stateMutability":"view","type":"function","constant":true},{"inputs":[],"name":"getActiveCampaign","outputs":[{"internalType":"string","name":"organization","type":"string"},{"internalType":"string","name":"category","type":"string"},{"internalType":"string","name":"title","type":"string"},{"internalType":"string","name":"ipfsHash","type":"string"},{"internalType":"uint256","name":"budgetWei","type":"uint256"},{"internalType":"uint256","name":"createdAt","type":"uint256"}],"stateMutability":"view","type":"function","constant":true},{"inputs":[],"name":"completeCampaign","outputs":[],"stateMutability":"nonpayable","type":"function"},{"inputs":[],"name":"getActiveCampaignIdsUsers","outputs":[{"internalType":"uint256[]","name":"","type":"uint256[]"}],"stateMutability":"view","type":"function","constant":true},{"inputs":[{"internalType":"uint256","name":"_id","type":"uint256"}],"name":"getActiveCampaignUsers","outputs":[{"internalType":"string","name":"organization","type":"string"},{"internalType":"string","name":"category","type":"string"},{"internalType":"string","name":"title","type":"string"},{"internalType":"string","name":"ipfsHash","type":"string"},{"internalType":"string","name":"key","type":"string"}],"stateMutability":"view","type":"function","constant":true},{"inputs":[],"name":"getCampaignsIndexer","outputs":[{"internalType":"string","name":"organization","type":"string"},{"internalType":"string","name":"category","type":"string"},{"internalType":"string","name":"title","type":"string"},{"internalType":"uint256","name":"createdAt","type":"uint256"}],"stateMutability":"view","type":"function","constant":true}],"bytecode":"0x60806040523480156200001157600080fd5b50600060068190555060006007819055506002604051806101600160405280600073ffffffffffffffffffffffffffffffffffffffff1681526020016040518060200160405280600081525081526020016040518060200160405280600081525081526020016040518060200160405280600081525081526020016040518060200160405280600081525081526020016040518060200160405280600081525081526020016000815260200160008152602001600081526020016000151581526020016040518060200160405280600081525081525090806001815401808255809150506001900390600052602060002090600b020160009091909190915060008201518160000160006101000a81548173ffffffffffffffffffffffffffffffffffffffff021916908373ffffffffffffffffffffffffffffffffffffffff1602179055506020820151816001019080519060200190620001759291906200025a565b506040820151816002019080519060200190620001949291906200025a565b506060820151816003019080519060200190620001b39291906200025a565b506080820151816004019080519060200190620001d29291906200025a565b5060a0820151816005019080519060200190620001f19291906200025a565b5060c0820151816006015560e0820151816007015561010082015181600801556101208201518160090160006101000a81548160ff02191690831515021790555061014082015181600a019080519060200190620002519291906200025a565b50505062000309565b828054600181600116156101000203166002900490600052602060002090601f016020900481019282601f106200029d57805160ff1916838001178555620002ce565b82800160010185558215620002ce579182015b82811115620002cd578251825591602001919060010190620002b0565b5b509050620002dd9190620002e1565b5090565b6200030691905b8082111562000302576000816000905550600101620002e8565b5090565b90565b61299280620003196000396000f3fe60806040526004361061010d5760003560e01c806399f75bc211610095578063b3e7d19211610064578063b3e7d19214610d0e578063b7acb19c14610d7a578063c0ffcdec14610d91578063c36f628614610dfa578063e23750ff14610e51576101b6565b806399f75bc214610a05578063a769511514610c69578063b229967714610ca6578063b36c749414610cd1576101b6565b80634cf8af9c116100dc5780634cf8af9c146104485780635497e5cd1461075f578063780aac03146107c85780637b95a3f9146108315780638bd3a2b7146109a0576101b6565b80630108e977146101bb57806310925a7c146101d2578063361be352146101fd5780633b807286146103df576101b6565b366101b657600073ffffffffffffffffffffffffffffffffffffffff163373ffffffffffffffffffffffffffffffffffffffff16146101b4576040517f08c379a00000000000000000000000000000000000000000000000000000000081526004018080602001828103825260118152602001807f6e6f7420616363657074696e672045544800000000000000000000000000000081525060200191505060405180910390fd5b005b600080fd5b3480156101c757600080fd5b506101d0610e7c565b005b3480156101de57600080fd5b506101e7610f46565b6040518082815260200191505060405180910390f35b34801561020957600080fd5b50610212611025565b604051808060200180602001806020018060200187815260200186815260200185810385528b818151815260200191508051906020019080838360005b8381101561026a57808201518184015260208101905061024f565b50505050905090810190601f1680156102975780820380516001836020036101000a031916815260200191505b5085810384528a818151815260200191508051906020019080838360005b838110156102d05780820151818401526020810190506102b5565b50505050905090810190601f1680156102fd5780820380516001836020036101000a031916815260200191505b50858103835289818151815260200191508051906020019080838360005b8381101561033657808201518184015260208101905061031b565b50505050905090810190601f1680156103635780820380516001836020036101000a031916815260200191505b50858103825288818151815260200191508051906020019080838360005b8381101561039c578082015181840152602081019050610381565b50505050905090810190601f1680156103c95780820380516001836020036101000a031916815260200191505b509a505050505050505050505060405180910390f35b3480156103eb57600080fd5b5061042e6004803603602081101561040257600080fd5b81019080803573ffffffffffffffffffffffffffffffffffffffff1690602001909291905050506113b8565b604051808215151515815260200191505060405180910390f35b61075d600480360360a081101561045e57600080fd5b810190808035906020019064010000000081111561047b57600080fd5b82018360208201111561048d57600080fd5b803590602001918460018302840111640100000000831117156104af57600080fd5b91908080601f016020809104026020016040519081016040528093929190818152602001838380828437600081840152601f19601f8201169050808301925050505050505091929192908035906020019064010000000081111561051257600080fd5b82018360208201111561052457600080fd5b8035906020019184600183028401116401000000008311171561054657600080fd5b91908080601f016020809104026020016040519081016040528093929190818152602001838380828437600081840152601f19601f820116905080830192505050505050509192919290803590602001906401000000008111156105a957600080fd5b8201836020820111156105bb57600080fd5b803590602001918460018302840111640100000000831117156105dd57600080fd5b91908080601f016020809104026020016040519081016040528093929190818152602001838380828437600081840152601f19601f8201169050808301925050505050505091929192908035906020019064010000000081111561064057600080fd5b82018360208201111561065257600080fd5b8035906020019184600183028401116401000000008311171561067457600080fd5b91908080601f016020809104026020016040519081016040528093929190818152602001838380828437600081840152601f19601f820116905080830192505050505050509192919290803590602001906401000000008111156106d757600080fd5b8201836020820111156106e957600080fd5b8035906020019184600183028401116401000000008311171561070b57600080fd5b91908080601f016020809104026020016040519081016040528093929190818152602001838380828437600081840152601f19601f8201169050808301925050505050505091929192905050506113d8565b005b34801561076b57600080fd5b506107ae6004803603602081101561078257600080fd5b81019080803573ffffffffffffffffffffffffffffffffffffffff1690602001909291905050506114fa565b604051808215151515815260200191505060405180910390f35b3480156107d457600080fd5b50610817600480360360208110156107eb57600080fd5b81019080803573ffffffffffffffffffffffffffffffffffffffff169060200190929190505050611550565b604051808215151515815260200191505060405180910390f35b34801561083d57600080fd5b50610846611570565b60405180806020018060200180602001858152602001848103845288818151815260200191508051906020019080838360005b83811015610894578082015181840152602081019050610879565b50505050905090810190601f1680156108c15780820380516001836020036101000a031916815260200191505b50848103835287818151815260200191508051906020019080838360005b838110156108fa5780820151818401526020810190506108df565b50505050905090810190601f1680156109275780820380516001836020036101000a031916815260200191505b50848103825286818151815260200191508051906020019080838360005b83811015610960578082015181840152602081019050610945565b50505050905090810190601f16801561098d5780820380516001836020036101000a031916815260200191505b5097505050505050505060405180910390f35b3480156109ac57600080fd5b506109ef600480360360208110156109c357600080fd5b81019080803573ffffffffffffffffffffffffffffffffffffffff169060200190929190505050611899565b6040518082815260200191505060405180910390f35b348015610a1157600080fd5b50610a3e60048036036020811015610a2857600080fd5b81019080803590602001909291905050506118b1565b60405180806020018060200180602001806020018060200186810386528b818151815260200191508051906020019080838360005b83811015610a8e578082015181840152602081019050610a73565b50505050905090810190601f168015610abb5780820380516001836020036101000a031916815260200191505b5086810385528a818151815260200191508051906020019080838360005b83811015610af4578082015181840152602081019050610ad9565b50505050905090810190601f168015610b215780820380516001836020036101000a031916815260200191505b50868103845289818151815260200191508051906020019080838360005b83811015610b5a578082015181840152602081019050610b3f565b50505050905090810190601f168015610b875780820380516001836020036101000a031916815260200191505b50868103835288818151815260200191508051906020019080838360005b83811015610bc0578082015181840152602081019050610ba5565b50505050905090810190601f168015610bed5780820380516001836020036101000a031916815260200191505b50868103825287818151815260200191508051906020019080838360005b83811015610c26578082015181840152602081019050610c0b565b50505050905090810190601f168015610c535780820380516001836020036101000a031916815260200191505b509a505050505050505050505060405180910390f35b348015610c7557600080fd5b50610ca460048036036020811015610c8c57600080fd5b81019080803515159060200190929190505050611ca6565b005b348015610cb257600080fd5b50610cbb611dcd565b6040518082815260200191505060405180910390f35b348015610cdd57600080fd5b50610d0c60048036036020811015610cf457600080fd5b81019080803515159060200190929190505050611dd3565b005b348015610d1a57600080fd5b50610d23611efa565b6040518080602001828103825283818151815260200191508051906020019060200280838360005b83811015610d66578082015181840152602081019050610d4b565b505050509050019250505060405180910390f35b348015610d8657600080fd5b50610d8f611ffb565b005b348015610d9d57600080fd5b50610de060048036036020811015610db457600080fd5b81019080803573ffffffffffffffffffffffffffffffffffffffff169060200190929190505050612181565b604051808215151515815260200191505060405180910390f35b348015610e0657600080fd5b50610e0f6121d7565b604051808273ffffffffffffffffffffffffffffffffffffffff1673ffffffffffffffffffffffffffffffffffffffff16815260200191505060405180910390f35b348015610e5d57600080fd5b50610e666121fc565b6040518082815260200191505060405180910390f35b6001600460003373ffffffffffffffffffffffffffffffffffffffff1673ffffffffffffffffffffffffffffffffffffffff16815260200190815260200160002060006101000a81548160ff0219169083151502179055506001600360003373ffffffffffffffffffffffffffffffffffffffff1673ffffffffffffffffffffffffffffffffffffffff16815260200190815260200160002060006101000a81548160ff021916908315150217905550600160065401600681905550600160075401600781905550565b600080600560003373ffffffffffffffffffffffffffffffffffffffff1673ffffffffffffffffffffffffffffffffffffffff168152602001908152602001600020541415610fe0576040517f08c379a00000000000000000000000000000000000000000000000000000000081526004018080602001828103825260248152602001806129146024913960400191505060405180910390fd5b600560003373ffffffffffffffffffffffffffffffffffffffff1673ffffffffffffffffffffffffffffffffffffffff16815260200190815260200160002054905090565b6060806060806000806000600560003373ffffffffffffffffffffffffffffffffffffffff1673ffffffffffffffffffffffffffffffffffffffff1681526020019081526020016000205414156110c7576040517f08c379a00000000000000000000000000000000000000000000000000000000081526004018080602001828103825260248152602001806129146024913960400191505060405180910390fd5b60006002600560003373ffffffffffffffffffffffffffffffffffffffff1673ffffffffffffffffffffffffffffffffffffffff168152602001908152602001600020548154811061111557fe5b90600052602060002090600b02019050806001018054600181600116156101000203166002900480601f0160208091040260200160405190810160405280929190818152602001828054600181600116156101000203166002900480156111bd5780601f10611192576101008083540402835291602001916111bd565b820191906000526020600020905b8154815290600101906020018083116111a057829003601f168201915b50505050509650806002018054600181600116156101000203166002900480601f01602080910402602001604051908101604052809291908181526020018280546001816001161561010002031660029004801561125c5780601f106112315761010080835404028352916020019161125c565b820191906000526020600020905b81548152906001019060200180831161123f57829003601f168201915b50505050509550806003018054600181600116156101000203166002900480601f0160208091040260200160405190810160405280929190818152602001828054600181600116156101000203166002900480156112fb5780601f106112d0576101008083540402835291602001916112fb565b820191906000526020600020905b8154815290600101906020018083116112de57829003601f168201915b50505050509450806004018054600181600116156101000203166002900480601f01602080910402602001604051908101604052809291908181526020018280546001816001161561010002031660029004801561139a5780601f1061136f5761010080835404028352916020019161139a565b820191906000526020600020905b81548152906001019060200180831161137d57829003601f168201915b50505050509350806006015492508060070154915050909192939495565b60046020528060005260406000206000915054906101000a900460ff1681565b6000600560003373ffffffffffffffffffffffffffffffffffffffff1673ffffffffffffffffffffffffffffffffffffffff1681526020019081526020016000205414611470576040517f08c379a00000000000000000000000000000000000000000000000000000000081526004018080602001828103825260268152602001806128ee6026913960400191505060405180910390fd5b600034116114e6576040517f08c379a000000000000000000000000000000000000000000000000000000000815260040180806020018281038252601c8152602001807f76616c7565206d7573742062652067726561746572207468616e20300000000081525060200191505060405180910390fd5b6114f38585858585612202565b5050505050565b6000600360008373ffffffffffffffffffffffffffffffffffffffff1673ffffffffffffffffffffffffffffffffffffffff16815260200190815260200160002060009054906101000a900460ff169050919050565b60036020528060005260406000206000915054906101000a900460ff1681565b606080606060008060009054906101000a900473ffffffffffffffffffffffffffffffffffffffff1673ffffffffffffffffffffffffffffffffffffffff163373ffffffffffffffffffffffffffffffffffffffff1614611639576040517f08c379a000000000000000000000000000000000000000000000000000000000815260040180806020018281038252601f8152602001807f6d73672e73656e646572206d757374206265206772617068496e64657865720081525060200191505060405180910390fd5b600060026001600560003373ffffffffffffffffffffffffffffffffffffffff1673ffffffffffffffffffffffffffffffffffffffff168152602001908152602001600020548154811061168957fe5b90600052602060002001548154811061169e57fe5b90600052602060002090600b02019050806001018054600181600116156101000203166002900480601f0160208091040260200160405190810160405280929190818152602001828054600181600116156101000203166002900480156117465780601f1061171b57610100808354040283529160200191611746565b820191906000526020600020905b81548152906001019060200180831161172957829003601f168201915b50505050509450806002018054600181600116156101000203166002900480601f0160208091040260200160405190810160405280929190818152602001828054600181600116156101000203166002900480156117e55780601f106117ba576101008083540402835291602001916117e5565b820191906000526020600020905b8154815290600101906020018083116117c857829003601f168201915b50505050509350806003018054600181600116156101000203166002900480601f0160208091040260200160405190810160405280929190818152602001828054600181600116156101000203166002900480156118845780601f1061185957610100808354040283529160200191611884565b820191906000526020600020905b81548152906001019060200180831161186757829003601f168201915b50505050509250806007015491505090919293565b60056020528060005260406000206000915090505481565b606080606080606060011515600460003373ffffffffffffffffffffffffffffffffffffffff1673ffffffffffffffffffffffffffffffffffffffff16815260200190815260200160002060009054906101000a900460ff16151514611962576040517f08c379a000000000000000000000000000000000000000000000000000000000815260040180806020018281038252602f81526020018061286c602f913960400191505060405180910390fd5b60006002878154811061197157fe5b90600052602060002090600b02019050806001018054600181600116156101000203166002900480601f016020809104026020016040519081016040528092919081815260200182805460018160011615610100020316600290048015611a195780601f106119ee57610100808354040283529160200191611a19565b820191906000526020600020905b8154815290600101906020018083116119fc57829003601f168201915b50505050509550806002018054600181600116156101000203166002900480601f016020809104026020016040519081016040528092919081815260200182805460018160011615610100020316600290048015611ab85780601f10611a8d57610100808354040283529160200191611ab8565b820191906000526020600020905b815481529060010190602001808311611a9b57829003601f168201915b50505050509450806003018054600181600116156101000203166002900480601f016020809104026020016040519081016040528092919081815260200182805460018160011615610100020316600290048015611b575780601f10611b2c57610100808354040283529160200191611b57565b820191906000526020600020905b815481529060010190602001808311611b3a57829003601f168201915b50505050509350806004018054600181600116156101000203166002900480601f016020809104026020016040519081016040528092919081815260200182805460018160011615610100020316600290048015611bf65780601f10611bcb57610100808354040283529160200191611bf6565b820191906000526020600020905b815481529060010190602001808311611bd957829003601f168201915b50505050509250806005018054600181600116156101000203166002900480601f016020809104026020016040519081016040528092919081815260200182805460018160011615610100020316600290048015611c955780601f10611c6a57610100808354040283529160200191611c95565b820191906000526020600020905b815481529060010190602001808311611c7857829003601f168201915b505050505091505091939590929450565b801515600360003373ffffffffffffffffffffffffffffffffffffffff1673ffffffffffffffffffffffffffffffffffffffff16815260200190815260200160002060009054906101000a900460ff1615151415611d4f576040517f08c379a00000000000000000000000000000000000000000000000000000000081526004018080602001828103825260258152602001806128c96025913960400191505060405180910390fd5b80600360003373ffffffffffffffffffffffffffffffffffffffff1673ffffffffffffffffffffffffffffffffffffffff16815260200190815260200160002060006101000a81548160ff0219169083151502179055508015611dbd57600160075401600781905550611dca565b6001600754036007819055505b50565b60075481565b801515600460003373ffffffffffffffffffffffffffffffffffffffff1673ffffffffffffffffffffffffffffffffffffffff16815260200190815260200160002060009054906101000a900460ff1615151415611e7c576040517f08c379a00000000000000000000000000000000000000000000000000000000081526004018080602001828103825260258152602001806129386025913960400191505060405180910390fd5b80600460003373ffffffffffffffffffffffffffffffffffffffff1673ffffffffffffffffffffffffffffffffffffffff16815260200190815260200160002060006101000a81548160ff0219169083151502179055508015611eea57600160065401600681905550611ef7565b6001600654036006819055505b50565b606060011515600460003373ffffffffffffffffffffffffffffffffffffffff1673ffffffffffffffffffffffffffffffffffffffff16815260200190815260200160002060009054906101000a900460ff16151514611fa5576040517f08c379a000000000000000000000000000000000000000000000000000000000815260040180806020018281038252602f81526020018061286c602f913960400191505060405180910390fd5b6001805480602002602001604051908101604052809291908181526020018280548015611ff157602002820191906000526020600020905b815481526020019060010190808311611fdd575b5050505050905090565b6000600560003373ffffffffffffffffffffffffffffffffffffffff1673ffffffffffffffffffffffffffffffffffffffff168152602001908152602001600020541415612094576040517f08c379a00000000000000000000000000000000000000000000000000000000081526004018080602001828103825260248152602001806129146024913960400191505060405180910390fd5b6120dc600560003373ffffffffffffffffffffffffffffffffffffffff1673ffffffffffffffffffffffffffffffffffffffff16815260200190815260200160002054612571565b600560003373ffffffffffffffffffffffffffffffffffffffff1673ffffffffffffffffffffffffffffffffffffffff168152602001908152602001600020547f8559b4dc0428ef20b1a5974fff4845e3163bfbec589128d75c7da62148fbd8ae33604051808273ffffffffffffffffffffffffffffffffffffffff1673ffffffffffffffffffffffffffffffffffffffff16815260200191505060405180910390a2565b6000600460008373ffffffffffffffffffffffffffffffffffffffff1673ffffffffffffffffffffffffffffffffffffffff16815260200190815260200160002060009054906101000a900460ff169050919050565b6000809054906101000a900473ffffffffffffffffffffffffffffffffffffffff1681565b60065481565b60026040518061016001604052803373ffffffffffffffffffffffffffffffffffffffff168152602001878152602001868152602001858152602001848152602001838152602001348152602001428152602001600081526020016001151581526020016040518060200160405280600081525081525090806001815401808255809150506001900390600052602060002090600b020160009091909190915060008201518160000160006101000a81548173ffffffffffffffffffffffffffffffffffffffff021916908373ffffffffffffffffffffffffffffffffffffffff16021790555060208201518160010190805190602001906123059291906127c6565b5060408201518160020190805190602001906123229291906127c6565b50606082015181600301908051906020019061233f9291906127c6565b50608082015181600401908051906020019061235c9291906127c6565b5060a08201518160050190805190602001906123799291906127c6565b5060c0820151816006015560e0820151816007015561010082015181600801556101208201518160090160006101000a81548160ff02191690831515021790555061014082015181600a0190805190602001906123d79291906127c6565b505050600180600280549050039080600181540180825580915050600190039060005260206000200160009091909190915055600160028054905003600560003373ffffffffffffffffffffffffffffffffffffffff1673ffffffffffffffffffffffffffffffffffffffff16815260200190815260200160002081905550846040518082805190602001908083835b6020831061248a5780518252602082019150602081019050602083039250612467565b6001836020036101000a03801982511681845116808217855250505050505090500191505060405180910390203373ffffffffffffffffffffffffffffffffffffffff167f5ac8e276ecc440c94efca836d61658acf8509fc4744d84f9dc062ac35d2f1c7e856040518080602001828103825283818151815260200191508051906020019080838360005b83811015612530578082015181840152602081019050612515565b50505050905090810190601f16801561255d5780820380516001836020036101000a031916815260200191505b509250505060405180910390a35050505050565b60018054905081106125eb576040517f08c379a000000000000000000000000000000000000000000000000000000000815260040180806020018281038252601d8152602001807f6f7574206f662072616e676520657863657074696f6e202d205f69647800000081525060200191505060405180910390fd5b600280549050600182815481106125fe57fe5b90600052602060002001541061265f576040517f08c379a000000000000000000000000000000000000000000000000000000000815260040180806020018281038252602e81526020018061289b602e913960400191505060405180910390fd5b6001151560026001838154811061267257fe5b90600052602060002001548154811061268757fe5b90600052602060002090600b020160090160009054906101000a900460ff1615151461271b576040517f08c379a00000000000000000000000000000000000000000000000000000000081526004018080602001828103825260178152602001807f63616d706169676e206d7573742062652061637469766500000000000000000081525060200191505060405180910390fd5b600060026001838154811061272c57fe5b90600052602060002001548154811061274157fe5b90600052602060002090600b020160090160006101000a81548160ff0219169083151502179055506001808080549050038154811061277c57fe5b90600052602060002001546001828154811061279457fe5b9060005260206000200181905550600180808054905003815481106127b557fe5b906000526020600020016000905550565b828054600181600116156101000203166002900490600052602060002090601f016020900481019282601f1061280757805160ff1916838001178555612835565b82800160010185558215612835579182015b82811115612834578251825591602001919060010190612819565b5b5090506128429190612846565b5090565b61286891905b8082111561286457600081600090555060010161284c565b5090565b9056fe6163636f756e74206d757374206861766520617070726f76656420746f20726563656976652063616d706169676e736f7574206f662072616e676520657863657074696f6e202d2061637469766543616d706169676e735b5f6964785d6f7074696f6e20666f72205f73686f756c6450726f7669646520616c7265616479207365746163636f756e7420616c72656164792068617320616e206163746976652063616d706169676e6163636f756e74206d757374206861766520616e206163746976652063616d706169676e6f7074696f6e20666f72205f73686f756c645265636569766520616c726561647920736574a2646970667358221220f36a4621ec0cf1f27060b2e0338845e02c1f0b812f78203b31d7f5cd524be2d564736f6c63430006000033","source":"pragma solidity ^0.6.0;\n\nimport '@openzeppelin/contracts/math/SafeMath.sol';\n\n/**\n * @title Babylon\n *\n * @dev This contract manages the exchange of hbz tokens for Babylonia tokens, with a locking period\n * in place before tokens can be claimed\n */\ncontract MobilityCampaigns {\n  using SafeMath for uint256;\n\n  event CampaignCreated(address indexed owner, string indexed organization, string title);\n  event CampaignCompleted(address owner, uint indexed campaignId);\n  event CampaignResultsReleased(uint indexed campaignId, string threadId);\n\n  struct Campaign {\n    address creator;      // the address of the creator\n    string organization;\n    string category;\n    string title;\n    string ipfsHash;\n    string key;\n    uint budgetWei;\n    uint createdAt;          // datetime created\n    uint expiresAt;          // datetime when no longer valid\n    bool isActive;           // set to false when no longer active\n    string campaignThreadId; // results of campaign only accessible to the creator\n  }\n\n  address public graphIndexer;\n  uint[] private activeCampaigns;\n  Campaign[] private campaigns;\n  mapping(address => bool) public dataProviders; // mapping of accounts that share data\n  mapping(address => bool) public campaignReceivers; // mapping of accounts that receive campaigns\n  mapping(address => uint) public activeCampaignOwners; // mapping of accounts that own campaigns (idx to activeCampaigns)\n\n  uint public totalCampaignReceivers;\n  uint public totalDataProviders;\n\n  modifier onlyGraphIndexer() {\n    require(msg.sender == graphIndexer, 'msg.sender must be graphIndexer');\n    _;\n  }\n\n  modifier onlyCampaignReceivers() {\n    require(campaignReceivers[msg.sender] == true, 'account must have approved to receive campaigns');\n    _;\n  }\n\n  modifier onlyActiveCampaignOwners() {\n    require(activeCampaignOwners[msg.sender] != 0, 'account must have an active campaign');\n    _;\n  }\n\n  modifier noActiveCampaign() {\n    require(activeCampaignOwners[msg.sender] == 0, 'account already has an active campaign');\n    _;\n  }\n\n  /**\n   * Contract constructor\n   */\n  constructor() public {\n    // indexing service The Graph\n    // graphIndexer = _graphIndexer;\n\n    totalCampaignReceivers = 0;\n    totalDataProviders = 0;\n\n    // take care of zero-index for storage array\n    campaigns.push(Campaign({\n      creator: address(0),\n      organization: '',\n      category: '',\n      title: '',\n      ipfsHash: '',\n      key: '',\n      budgetWei: 0,\n      createdAt: 0,\n      expiresAt: 0,\n      isActive: false,\n      campaignThreadId: ''\n    }));\n  }\n\n  /**\n   * Do not accept ETH\n   */\n  receive() external payable {\n    require(msg.sender == address(0), 'not accepting ETH');\n  }\n\n  // creator must send info + ETH\n  function createCampaign(\n    string memory _organization,\n    string memory _category,\n    string memory _title,\n    string memory _ipfsHash,\n    string memory _key\n  ) public\n    payable\n    noActiveCampaign\n  {\n    // assert budget\n    require(msg.value > 0, 'value must be greater than 0');\n\n    // @TODO: allocate budget accordingly\n    // @TODO: set expiredAt\n\n    // create record in storage, update lookup arrays\n    _createCampaignRecord(\n      _organization,\n      _category,\n      _title,\n      _ipfsHash,\n      _key\n    );\n  }\n\n  function getReceiveCampaign(address _a) public view returns (bool) {\n    return campaignReceivers[_a];\n  }\n\n  function getProvideData(address _a) public view returns (bool) {\n    return dataProviders[_a];\n  }\n\n  function enableNewUser() external {\n    campaignReceivers[msg.sender] = true;\n    dataProviders[msg.sender] = true;\n\n    totalCampaignReceivers = totalCampaignReceivers + 1;\n    totalDataProviders = totalDataProviders + 1;\n  }\n\n  function toggleReceiveCampaign(bool _shouldReceive) external {\n    require(campaignReceivers[msg.sender] != _shouldReceive, 'option for _shouldReceive already set');\n    campaignReceivers[msg.sender] = _shouldReceive;\n    if (_shouldReceive) {\n      totalCampaignReceivers = totalCampaignReceivers + 1;\n    } else {\n      totalCampaignReceivers = totalCampaignReceivers - 1;\n    }\n  }\n\n  function toggleProvideData(bool _shouldProvide) external {\n    require(dataProviders[msg.sender] != _shouldProvide, 'option for _shouldProvide already set');\n    dataProviders[msg.sender] = _shouldProvide;\n    if (_shouldProvide) {\n      totalDataProviders = totalDataProviders + 1;\n    } else {\n      totalDataProviders = totalDataProviders - 1;\n    }\n  }\n\n  // return active campaign id for owners\n  function getActiveCampaignId()\n    external\n    view\n    onlyActiveCampaignOwners\n    returns(uint)\n  {\n    return activeCampaignOwners[msg.sender];\n  }\n\n  // return active campaign for owners\n  function getActiveCampaign()\n    external\n    view\n    onlyActiveCampaignOwners\n    returns(\n      string memory organization,\n      string memory category,\n      string memory title,\n      string memory ipfsHash,\n      uint budgetWei,\n      uint createdAt\n    )\n  {\n    Campaign storage campaign = campaigns[activeCampaignOwners[msg.sender]];\n    organization = campaign.organization;\n    category = campaign.category;\n    title = campaign.title;\n    ipfsHash = campaign.ipfsHash;\n    budgetWei = campaign.budgetWei;\n    createdAt = campaign.createdAt;\n  }\n\n  function completeCampaign()\n    external\n    onlyActiveCampaignOwners\n  {\n    _removeActiveCampaignAt(activeCampaignOwners[msg.sender]);\n\n    emit CampaignCompleted(msg.sender, activeCampaignOwners[msg.sender]);\n  }\n\n  // return active campaign ids for receivers\n  function getActiveCampaignIdsUsers()\n    external\n    view\n    onlyCampaignReceivers\n    returns(uint[] memory)\n  {\n    return activeCampaigns;\n  }\n\n\n  // return campaign for owners\n  function getActiveCampaignUsers(uint _id)\n    external\n    view\n    onlyCampaignReceivers\n    returns(\n      string memory organization,\n      string memory category,\n      string memory title,\n      string memory ipfsHash,\n      string memory key\n    )\n  {\n    Campaign storage campaign = campaigns[_id];\n    organization = campaign.organization;\n    category = campaign.category;\n    title = campaign.title;\n    ipfsHash = campaign.ipfsHash;\n    key = campaign.key;\n  }\n\n  // return active campaigns\n  function getCampaignsIndexer()\n    external\n    view\n    onlyGraphIndexer\n    returns(\n      string memory organization,\n      string memory category,\n      string memory title,\n      uint createdAt\n    )\n  {\n    Campaign storage campaign = campaigns[activeCampaigns[activeCampaignOwners[msg.sender]]];\n    organization = campaign.organization;\n    category = campaign.category;\n    title = campaign.title;\n    createdAt = campaign.createdAt;\n  }\n\n  /**\n   * Creates a record for the token exchange\n   */\n  function _createCampaignRecord(\n    string memory _organization,\n    string memory _category,\n    string memory _title,\n    string memory _ipfsHash,\n    string memory _key\n  )\n    internal\n  {\n    // add to storage and lookup\n    campaigns.push(Campaign({\n      creator: msg.sender,\n      organization: _organization,\n      category: _category,\n      title: _title,\n      ipfsHash: _ipfsHash,\n      key: _key,\n      budgetWei: msg.value,\n      createdAt: block.timestamp, // solium-disable-line security/no-block-members, whitespace\n      expiresAt: 0, // @TODO:\n      isActive: true,\n      campaignThreadId: ''\n    }));\n    activeCampaigns.push(campaigns.length - 1);\n    activeCampaignOwners[msg.sender] = campaigns.length - 1;\n\n    emit CampaignCreated(msg.sender, _organization, _title);\n  }\n\n  // make a campaign inactive\n  function _removeActiveCampaignAt(uint _idx) internal {\n    require(_idx < activeCampaigns.length, 'out of range exception - _idx');\n    require(activeCampaigns[_idx] < campaigns.length, 'out of range exception - activeCampaigns[_idx]');\n    require(campaigns[activeCampaigns[_idx]].isActive == true, 'campaign must be active');\n\n    campaigns[activeCampaigns[_idx]].isActive = false;\n    activeCampaigns[_idx] = activeCampaigns[activeCampaigns.length - 1];\n    delete activeCampaigns[activeCampaigns.length - 1];\n  }\n}\n","sourcePath":"/Users/carlos/Desktop/imthatcarlos/mobility-marketplace-contracts/contracts/MobilityCampaigns.sol","compiler":{"name":"solc","version":"0.6.0+commit.26b70077.Emscripten.clang"},"schemaVersion":"3.1.0","updatedAt":"2020-07-29T19:30:53.422Z","networkType":"ethereum","devdoc":{"details":"This contract manages the exchange of hbz tokens for Babylonia tokens, with a locking period in place before tokens can be claimed","methods":{},"title":"Babylon"},"userdoc":{"methods":{"constructor":"Contract constructor"}}}