{"contractName":"MobilityCampaigns","abi":[{"inputs":[],"stateMutability":"nonpayable","type":"constructor"},{"anonymous":false,"inputs":[{"indexed":false,"internalType":"address","name":"owner","type":"address"},{"indexed":true,"internalType":"uint256","name":"campaignId","type":"uint256"}],"name":"CampaignCompleted","type":"event"},{"anonymous":false,"inputs":[{"indexed":true,"internalType":"address","name":"owner","type":"address"},{"indexed":true,"internalType":"string","name":"organization","type":"string"},{"indexed":false,"internalType":"string","name":"title","type":"string"}],"name":"CampaignCreated","type":"event"},{"anonymous":false,"inputs":[{"indexed":true,"internalType":"uint256","name":"campaignId","type":"uint256"},{"indexed":false,"internalType":"string","name":"threadId","type":"string"}],"name":"CampaignResultsReleased","type":"event"},{"inputs":[{"internalType":"address","name":"","type":"address"}],"name":"activeCampaignOwners","outputs":[{"internalType":"uint256","name":"","type":"uint256"}],"stateMutability":"view","type":"function"},{"inputs":[{"internalType":"address","name":"","type":"address"}],"name":"campaignReceivers","outputs":[{"internalType":"bool","name":"","type":"bool"}],"stateMutability":"view","type":"function"},{"inputs":[{"internalType":"address","name":"","type":"address"}],"name":"dataProviders","outputs":[{"internalType":"bool","name":"","type":"bool"}],"stateMutability":"view","type":"function"},{"inputs":[],"name":"graphIndexer","outputs":[{"internalType":"address","name":"","type":"address"}],"stateMutability":"view","type":"function"},{"inputs":[],"name":"totalCampaignReceivers","outputs":[{"internalType":"uint256","name":"","type":"uint256"}],"stateMutability":"view","type":"function"},{"inputs":[],"name":"totalDataProviders","outputs":[{"internalType":"uint256","name":"","type":"uint256"}],"stateMutability":"view","type":"function"},{"stateMutability":"payable","type":"receive"},{"inputs":[{"internalType":"string","name":"_organization","type":"string"},{"internalType":"string","name":"_category","type":"string"},{"internalType":"string","name":"_title","type":"string"},{"internalType":"string","name":"_ipfsHash","type":"string"}],"name":"createCampaign","outputs":[],"stateMutability":"payable","type":"function"},{"inputs":[{"internalType":"address","name":"_a","type":"address"}],"name":"getReceiveCampaign","outputs":[{"internalType":"bool","name":"","type":"bool"}],"stateMutability":"view","type":"function"},{"inputs":[{"internalType":"address","name":"_a","type":"address"}],"name":"getProvideData","outputs":[{"internalType":"bool","name":"","type":"bool"}],"stateMutability":"view","type":"function"},{"inputs":[{"internalType":"bool","name":"_shouldReceive","type":"bool"}],"name":"toggleReceiveCampaign","outputs":[],"stateMutability":"nonpayable","type":"function"},{"inputs":[{"internalType":"bool","name":"_shouldProvide","type":"bool"}],"name":"toggleProvideData","outputs":[],"stateMutability":"nonpayable","type":"function"},{"inputs":[],"name":"getActiveCampaign","outputs":[{"internalType":"string","name":"organization","type":"string"},{"internalType":"string","name":"category","type":"string"},{"internalType":"string","name":"title","type":"string"},{"internalType":"string","name":"ipfsHash","type":"string"},{"internalType":"uint256","name":"budgetWei","type":"uint256"},{"internalType":"uint256","name":"createdAt","type":"uint256"}],"stateMutability":"view","type":"function"},{"inputs":[{"internalType":"address[]","name":"_payouts","type":"address[]"}],"name":"completeCampaign","outputs":[{"internalType":"uint256","name":"","type":"uint256"}],"stateMutability":"nonpayable","type":"function"},{"inputs":[{"internalType":"uint256","name":"_id","type":"uint256"},{"internalType":"string","name":"_thread","type":"string"}],"name":"setCampaignResultsThread","outputs":[],"stateMutability":"nonpayable","type":"function"},{"inputs":[{"internalType":"uint256","name":"_id","type":"uint256"}],"name":"getCampaignResults","outputs":[{"internalType":"string","name":"","type":"string"}],"stateMutability":"view","type":"function"},{"inputs":[],"name":"getActiveCampaignIdsUsers","outputs":[{"internalType":"uint256[]","name":"","type":"uint256[]"}],"stateMutability":"view","type":"function"},{"inputs":[{"internalType":"uint256","name":"_id","type":"uint256"}],"name":"getActiveCampaignUsers","outputs":[{"internalType":"string","name":"organization","type":"string"},{"internalType":"string","name":"category","type":"string"},{"internalType":"string","name":"title","type":"string"},{"internalType":"string","name":"ipfsHash","type":"string"}],"stateMutability":"view","type":"function"},{"inputs":[],"name":"getCampaignsIndexer","outputs":[{"internalType":"string","name":"organization","type":"string"},{"internalType":"string","name":"category","type":"string"},{"internalType":"string","name":"title","type":"string"},{"internalType":"uint256","name":"createdAt","type":"uint256"}],"stateMutability":"view","type":"function"}],"bytecode":"0x60806040523480156200001157600080fd5b50600060078190555060006008819055506002604051806101400160405280600073ffffffffffffffffffffffffffffffffffffffff1681526020016040518060200160405280600081525081526020016040518060200160405280600081525081526020016040518060200160405280600081525081526020016040518060200160405280600081525081526020016000815260200160008152602001600081526020016000151581526020016040518060200160405280600081525081525090806001815401808255809150506001900390600052602060002090600a020160009091909190915060008201518160000160006101000a81548173ffffffffffffffffffffffffffffffffffffffff021916908373ffffffffffffffffffffffffffffffffffffffff16021790555060208201518160010190805190602001906200016092919062000225565b5060408201518160020190805190602001906200017f92919062000225565b5060608201518160030190805190602001906200019e92919062000225565b506080820151816004019080519060200190620001bd92919062000225565b5060a0820151816005015560c0820151816006015560e082015181600701556101008201518160080160006101000a81548160ff0219169083151502179055506101208201518160090190805190602001906200021c92919062000225565b505050620002d4565b828054600181600116156101000203166002900490600052602060002090601f016020900481019282601f106200026857805160ff191683800117855562000299565b8280016001018555821562000299579182015b82811115620002985782518255916020019190600101906200027b565b5b509050620002a89190620002ac565b5090565b620002d191905b80821115620002cd576000816000905550600101620002b3565b5090565b90565b612d2580620002e46000396000f3fe60806040526004361061010d5760003560e01c806399f75bc211610095578063b3e7d19211610064578063b3e7d19214610d35578063c0ffcdec14610da1578063c36f628614610e0a578063cd9fbcb014610e61578063e23750ff14610f15576101b6565b806399f75bc214610a98578063a769511514610c90578063b229967714610ccd578063b36c749414610cf8576101b6565b80637258b9b2116100dc5780637258b9b2146106ef578063780aac03146107895780637b95a3f9146107f25780638747e149146109615780638bd3a2b714610a33576101b6565b8063361be352146101bb5780633b8072861461039d5780635497e5cd146104065780635d6b036d1461046f576101b6565b366101b657600073ffffffffffffffffffffffffffffffffffffffff163373ffffffffffffffffffffffffffffffffffffffff16146101b4576040517f08c379a00000000000000000000000000000000000000000000000000000000081526004018080602001828103825260118152602001807f6e6f7420616363657074696e672045544800000000000000000000000000000081525060200191505060405180910390fd5b005b600080fd5b3480156101c757600080fd5b506101d0610f40565b604051808060200180602001806020018060200187815260200186815260200185810385528b818151815260200191508051906020019080838360005b8381101561022857808201518184015260208101905061020d565b50505050905090810190601f1680156102555780820380516001836020036101000a031916815260200191505b5085810384528a818151815260200191508051906020019080838360005b8381101561028e578082015181840152602081019050610273565b50505050905090810190601f1680156102bb5780820380516001836020036101000a031916815260200191505b50858103835289818151815260200191508051906020019080838360005b838110156102f45780820151818401526020810190506102d9565b50505050905090810190601f1680156103215780820380516001836020036101000a031916815260200191505b50858103825288818151815260200191508051906020019080838360005b8381101561035a57808201518184015260208101905061033f565b50505050905090810190601f1680156103875780820380516001836020036101000a031916815260200191505b509a505050505050505050505060405180910390f35b3480156103a957600080fd5b506103ec600480360360208110156103c057600080fd5b81019080803573ffffffffffffffffffffffffffffffffffffffff1690602001909291905050506112d3565b604051808215151515815260200191505060405180910390f35b34801561041257600080fd5b506104556004803603602081101561042957600080fd5b81019080803573ffffffffffffffffffffffffffffffffffffffff1690602001909291905050506112f3565b604051808215151515815260200191505060405180910390f35b6106ed6004803603608081101561048557600080fd5b81019080803590602001906401000000008111156104a257600080fd5b8201836020820111156104b457600080fd5b803590602001918460018302840111640100000000831117156104d657600080fd5b91908080601f016020809104026020016040519081016040528093929190818152602001838380828437600081840152601f19601f8201169050808301925050505050505091929192908035906020019064010000000081111561053957600080fd5b82018360208201111561054b57600080fd5b8035906020019184600183028401116401000000008311171561056d57600080fd5b91908080601f016020809104026020016040519081016040528093929190818152602001838380828437600081840152601f19601f820116905080830192505050505050509192919290803590602001906401000000008111156105d057600080fd5b8201836020820111156105e257600080fd5b8035906020019184600183028401116401000000008311171561060457600080fd5b91908080601f016020809104026020016040519081016040528093929190818152602001838380828437600081840152601f19601f8201169050808301925050505050505091929192908035906020019064010000000081111561066757600080fd5b82018360208201111561067957600080fd5b8035906020019184600183028401116401000000008311171561069b57600080fd5b91908080601f016020809104026020016040519081016040528093929190818152602001838380828437600081840152601f19601f820116905080830192505050505050509192919290505050611349565b005b3480156106fb57600080fd5b506107736004803603602081101561071257600080fd5b810190808035906020019064010000000081111561072f57600080fd5b82018360208201111561074157600080fd5b8035906020019184602083028401116401000000008311171561076357600080fd5b9091929391929390505050611469565b6040518082815260200191505060405180910390f35b34801561079557600080fd5b506107d8600480360360208110156107ac57600080fd5b81019080803573ffffffffffffffffffffffffffffffffffffffff169060200190929190505050611722565b604051808215151515815260200191505060405180910390f35b3480156107fe57600080fd5b50610807611742565b60405180806020018060200180602001858152602001848103845288818151815260200191508051906020019080838360005b8381101561085557808201518184015260208101905061083a565b50505050905090810190601f1680156108825780820380516001836020036101000a031916815260200191505b50848103835287818151815260200191508051906020019080838360005b838110156108bb5780820151818401526020810190506108a0565b50505050905090810190601f1680156108e85780820380516001836020036101000a031916815260200191505b50848103825286818151815260200191508051906020019080838360005b83811015610921578082015181840152602081019050610906565b50505050905090810190601f16801561094e5780820380516001836020036101000a031916815260200191505b5097505050505050505060405180910390f35b34801561096d57600080fd5b50610a316004803603604081101561098457600080fd5b8101908080359060200190929190803590602001906401000000008111156109ab57600080fd5b8201836020820111156109bd57600080fd5b803590602001918460018302840111640100000000831117156109df57600080fd5b91908080601f016020809104026020016040519081016040528093929190818152602001838380828437600081840152601f19601f820116905080830192505050505050509192919290505050611a6b565b005b348015610a3f57600080fd5b50610a8260048036036020811015610a5657600080fd5b81019080803573ffffffffffffffffffffffffffffffffffffffff169060200190929190505050611d31565b6040518082815260200191505060405180910390f35b348015610aa457600080fd5b50610ad160048036036020811015610abb57600080fd5b8101908080359060200190929190505050611d49565b6040518080602001806020018060200180602001858103855289818151815260200191508051906020019080838360005b83811015610b1d578082015181840152602081019050610b02565b50505050905090810190601f168015610b4a5780820380516001836020036101000a031916815260200191505b50858103845288818151815260200191508051906020019080838360005b83811015610b83578082015181840152602081019050610b68565b50505050905090810190601f168015610bb05780820380516001836020036101000a031916815260200191505b50858103835287818151815260200191508051906020019080838360005b83811015610be9578082015181840152602081019050610bce565b50505050905090810190601f168015610c165780820380516001836020036101000a031916815260200191505b50858103825286818151815260200191508051906020019080838360005b83811015610c4f578082015181840152602081019050610c34565b50505050905090810190601f168015610c7c5780820380516001836020036101000a031916815260200191505b509850505050505050505060405180910390f35b348015610c9c57600080fd5b50610ccb60048036036020811015610cb357600080fd5b8101908080351515906020019092919050505061209b565b005b348015610cd957600080fd5b50610ce26121c2565b6040518082815260200191505060405180910390f35b348015610d0457600080fd5b50610d3360048036036020811015610d1b57600080fd5b810190808035151590602001909291905050506121c8565b005b348015610d4157600080fd5b50610d4a6122ef565b6040518080602001828103825283818151815260200191508051906020019060200280838360005b83811015610d8d578082015181840152602081019050610d72565b505050509050019250505060405180910390f35b348015610dad57600080fd5b50610df060048036036020811015610dc457600080fd5b81019080803573ffffffffffffffffffffffffffffffffffffffff1690602001909291905050506123f0565b604051808215151515815260200191505060405180910390f35b348015610e1657600080fd5b50610e1f612446565b604051808273ffffffffffffffffffffffffffffffffffffffff1673ffffffffffffffffffffffffffffffffffffffff16815260200191505060405180910390f35b348015610e6d57600080fd5b50610e9a60048036036020811015610e8457600080fd5b810190808035906020019092919050505061246b565b6040518080602001828103825283818151815260200191508051906020019080838360005b83811015610eda578082015181840152602081019050610ebf565b50505050905090810190601f168015610f075780820380516001836020036101000a031916815260200191505b509250505060405180910390f35b348015610f2157600080fd5b50610f2a612664565b6040518082815260200191505060405180910390f35b6060806060806000806000600560003373ffffffffffffffffffffffffffffffffffffffff1673ffffffffffffffffffffffffffffffffffffffff168152602001908152602001600020541415610fe2576040517f08c379a0000000000000000000000000000000000000000000000000000000008152600401808060200182810382526024815260200180612c376024913960400191505060405180910390fd5b60006002600560003373ffffffffffffffffffffffffffffffffffffffff1673ffffffffffffffffffffffffffffffffffffffff168152602001908152602001600020548154811061103057fe5b90600052602060002090600a02019050806001018054600181600116156101000203166002900480601f0160208091040260200160405190810160405280929190818152602001828054600181600116156101000203166002900480156110d85780601f106110ad576101008083540402835291602001916110d8565b820191906000526020600020905b8154815290600101906020018083116110bb57829003601f168201915b50505050509650806002018054600181600116156101000203166002900480601f0160208091040260200160405190810160405280929190818152602001828054600181600116156101000203166002900480156111775780601f1061114c57610100808354040283529160200191611177565b820191906000526020600020905b81548152906001019060200180831161115a57829003601f168201915b50505050509550806003018054600181600116156101000203166002900480601f0160208091040260200160405190810160405280929190818152602001828054600181600116156101000203166002900480156112165780601f106111eb57610100808354040283529160200191611216565b820191906000526020600020905b8154815290600101906020018083116111f957829003601f168201915b50505050509450806004018054600181600116156101000203166002900480601f0160208091040260200160405190810160405280929190818152602001828054600181600116156101000203166002900480156112b55780601f1061128a576101008083540402835291602001916112b5565b820191906000526020600020905b81548152906001019060200180831161129857829003601f168201915b50505050509350806005015492508060060154915050909192939495565b60046020528060005260406000206000915054906101000a900460ff1681565b6000600360008373ffffffffffffffffffffffffffffffffffffffff1673ffffffffffffffffffffffffffffffffffffffff16815260200190815260200160002060009054906101000a900460ff169050919050565b6000600560003373ffffffffffffffffffffffffffffffffffffffff1673ffffffffffffffffffffffffffffffffffffffff16815260200190815260200160002054146113e1576040517f08c379a0000000000000000000000000000000000000000000000000000000008152600401808060200182810382526026815260200180612c116026913960400191505060405180910390fd5b60003411611457576040517f08c379a000000000000000000000000000000000000000000000000000000000815260040180806020018281038252601c8152602001807f76616c7565206d7573742062652067726561746572207468616e20300000000081525060200191505060405180910390fd5b6114638484848461266a565b50505050565b600080600560003373ffffffffffffffffffffffffffffffffffffffff1673ffffffffffffffffffffffffffffffffffffffff168152602001908152602001600020541415611503576040517f08c379a0000000000000000000000000000000000000000000000000000000008152600401808060200182810382526024815260200180612c376024913960400191505060405180910390fd5b6000838390501161155f576040517f08c379a0000000000000000000000000000000000000000000000000000000008152600401808060200182810382526024815260200180612ccc6024913960400191505060405180910390fd5b828260066000600560003373ffffffffffffffffffffffffffffffffffffffff1673ffffffffffffffffffffffffffffffffffffffff16815260200190815260200160002054815260200190815260200160002091906115c09291906129b4565b5060006002600560003373ffffffffffffffffffffffffffffffffffffffff1673ffffffffffffffffffffffffffffffffffffffff168152602001908152602001600020548154811061160f57fe5b90600052602060002090600a020160080160006101000a81548160ff021916908315150217905550600560003373ffffffffffffffffffffffffffffffffffffffff1673ffffffffffffffffffffffffffffffffffffffff168152602001908152602001600020547f8559b4dc0428ef20b1a5974fff4845e3163bfbec589128d75c7da62148fbd8ae33604051808273ffffffffffffffffffffffffffffffffffffffff1673ffffffffffffffffffffffffffffffffffffffff16815260200191505060405180910390a2600560003373ffffffffffffffffffffffffffffffffffffffff1673ffffffffffffffffffffffffffffffffffffffff16815260200190815260200160002054905092915050565b60036020528060005260406000206000915054906101000a900460ff1681565b606080606060008060009054906101000a900473ffffffffffffffffffffffffffffffffffffffff1673ffffffffffffffffffffffffffffffffffffffff163373ffffffffffffffffffffffffffffffffffffffff161461180b576040517f08c379a000000000000000000000000000000000000000000000000000000000815260040180806020018281038252601f8152602001807f6d73672e73656e646572206d757374206265206772617068496e64657865720081525060200191505060405180910390fd5b600060026001600560003373ffffffffffffffffffffffffffffffffffffffff1673ffffffffffffffffffffffffffffffffffffffff168152602001908152602001600020548154811061185b57fe5b90600052602060002001548154811061187057fe5b90600052602060002090600a02019050806001018054600181600116156101000203166002900480601f0160208091040260200160405190810160405280929190818152602001828054600181600116156101000203166002900480156119185780601f106118ed57610100808354040283529160200191611918565b820191906000526020600020905b8154815290600101906020018083116118fb57829003601f168201915b50505050509450806002018054600181600116156101000203166002900480601f0160208091040260200160405190810160405280929190818152602001828054600181600116156101000203166002900480156119b75780601f1061198c576101008083540402835291602001916119b7565b820191906000526020600020905b81548152906001019060200180831161199a57829003601f168201915b50505050509350806003018054600181600116156101000203166002900480601f016020809104026020016040519081016040528092919081815260200182805460018160011615610100020316600290048015611a565780601f10611a2b57610100808354040283529160200191611a56565b820191906000526020600020905b815481529060010190602001808311611a3957829003601f168201915b50505050509250806006015491505090919293565b6000809054906101000a900473ffffffffffffffffffffffffffffffffffffffff1673ffffffffffffffffffffffffffffffffffffffff163373ffffffffffffffffffffffffffffffffffffffff1614611b2d576040517f08c379a000000000000000000000000000000000000000000000000000000000815260040180806020018281038252601f8152602001807f6d73672e73656e646572206d757374206265206772617068496e64657865720081525060200191505060405180910390fd5b6000151560028381548110611b3e57fe5b90600052602060002090600a020160080160009054906101000a900460ff16151514611bd2576040517f08c379a000000000000000000000000000000000000000000000000000000000815260040180806020018281038252601a8152602001807f63616d706169676e206d75737420626520636f6d706c6574656400000000000081525060200191505060405180910390fd5b600060028381548110611be157fe5b90600052602060002090600a020160090180546001816001161561010002031660029004905014611c5d576040517f08c379a0000000000000000000000000000000000000000000000000000000008152600401808060200182810382526028815260200180612c806028913960400191505060405180910390fd5b8060028381548110611c6b57fe5b90600052602060002090600a02016009019080519060200190611c8f929190612a54565b50817f44c9813ab83f7aa0718ab2e33a04a243f260e13cab2402107a9cca4d47d97736826040518080602001828103825283818151815260200191508051906020019080838360005b83811015611cf3578082015181840152602081019050611cd8565b50505050905090810190601f168015611d205780820380516001836020036101000a031916815260200191505b509250505060405180910390a25050565b60056020528060005260406000206000915090505481565b60608060608060011515600460003373ffffffffffffffffffffffffffffffffffffffff1673ffffffffffffffffffffffffffffffffffffffff16815260200190815260200160002060009054906101000a900460ff16151514611df8576040517f08c379a000000000000000000000000000000000000000000000000000000000815260040180806020018281038252602f815260200180612bbd602f913960400191505060405180910390fd5b600060028681548110611e0757fe5b90600052602060002090600a02019050806001018054600181600116156101000203166002900480601f016020809104026020016040519081016040528092919081815260200182805460018160011615610100020316600290048015611eaf5780601f10611e8457610100808354040283529160200191611eaf565b820191906000526020600020905b815481529060010190602001808311611e9257829003601f168201915b50505050509450806002018054600181600116156101000203166002900480601f016020809104026020016040519081016040528092919081815260200182805460018160011615610100020316600290048015611f4e5780601f10611f2357610100808354040283529160200191611f4e565b820191906000526020600020905b815481529060010190602001808311611f3157829003601f168201915b50505050509350806003018054600181600116156101000203166002900480601f016020809104026020016040519081016040528092919081815260200182805460018160011615610100020316600290048015611fed5780601f10611fc257610100808354040283529160200191611fed565b820191906000526020600020905b815481529060010190602001808311611fd057829003601f168201915b50505050509250806004018054600181600116156101000203166002900480601f01602080910402602001604051908101604052809291908181526020018280546001816001161561010002031660029004801561208c5780601f106120615761010080835404028352916020019161208c565b820191906000526020600020905b81548152906001019060200180831161206f57829003601f168201915b50505050509150509193509193565b801515600360003373ffffffffffffffffffffffffffffffffffffffff1673ffffffffffffffffffffffffffffffffffffffff16815260200190815260200160002060009054906101000a900460ff1615151415612144576040517f08c379a0000000000000000000000000000000000000000000000000000000008152600401808060200182810382526025815260200180612bec6025913960400191505060405180910390fd5b80600360003373ffffffffffffffffffffffffffffffffffffffff1673ffffffffffffffffffffffffffffffffffffffff16815260200190815260200160002060006101000a81548160ff02191690831515021790555080156121b2576001600854016008819055506121bf565b6001600854036008819055505b50565b60085481565b801515600460003373ffffffffffffffffffffffffffffffffffffffff1673ffffffffffffffffffffffffffffffffffffffff16815260200190815260200160002060009054906101000a900460ff1615151415612271576040517f08c379a0000000000000000000000000000000000000000000000000000000008152600401808060200182810382526025815260200180612c5b6025913960400191505060405180910390fd5b80600460003373ffffffffffffffffffffffffffffffffffffffff1673ffffffffffffffffffffffffffffffffffffffff16815260200190815260200160002060006101000a81548160ff02191690831515021790555080156122df576001600754016007819055506122ec565b6001600754036007819055505b50565b606060011515600460003373ffffffffffffffffffffffffffffffffffffffff1673ffffffffffffffffffffffffffffffffffffffff16815260200190815260200160002060009054906101000a900460ff1615151461239a576040517f08c379a000000000000000000000000000000000000000000000000000000000815260040180806020018281038252602f815260200180612bbd602f913960400191505060405180910390fd5b60018054806020026020016040519081016040528092919081815260200182805480156123e657602002820191906000526020600020905b8154815260200190600101908083116123d2575b5050505050905090565b6000600460008373ffffffffffffffffffffffffffffffffffffffff1673ffffffffffffffffffffffffffffffffffffffff16815260200190815260200160002060009054906101000a900460ff169050919050565b6000809054906101000a900473ffffffffffffffffffffffffffffffffffffffff1681565b606060006002838154811061247c57fe5b90600052602060002090600a020190503373ffffffffffffffffffffffffffffffffffffffff168160000160009054906101000a900473ffffffffffffffffffffffffffffffffffffffff1673ffffffffffffffffffffffffffffffffffffffff1614612534576040517f08c379a0000000000000000000000000000000000000000000000000000000008152600401808060200182810382526024815260200180612ca86024913960400191505060405180910390fd5b600015158160080160009054906101000a900460ff161515146125bf576040517f08c379a000000000000000000000000000000000000000000000000000000000815260040180806020018281038252601a8152602001807f63616d706169676e206d75737420626520636f6d706c6574656400000000000081525060200191505060405180910390fd5b806009018054600181600116156101000203166002900480601f0160208091040260200160405190810160405280929190818152602001828054600181600116156101000203166002900480156126575780601f1061262c57610100808354040283529160200191612657565b820191906000526020600020905b81548152906001019060200180831161263a57829003601f168201915b5050505050915050919050565b60075481565b60026040518061014001604052803373ffffffffffffffffffffffffffffffffffffffff168152602001868152602001858152602001848152602001838152602001348152602001428152602001600081526020016001151581526020016040518060200160405280600081525081525090806001815401808255809150506001900390600052602060002090600a020160009091909190915060008201518160000160006101000a81548173ffffffffffffffffffffffffffffffffffffffff021916908373ffffffffffffffffffffffffffffffffffffffff1602179055506020820151816001019080519060200190612767929190612ad4565b506040820151816002019080519060200190612784929190612ad4565b5060608201518160030190805190602001906127a1929190612ad4565b5060808201518160040190805190602001906127be929190612ad4565b5060a0820151816005015560c0820151816006015560e082015181600701556101008201518160080160006101000a81548160ff02191690831515021790555061012082015181600901908051906020019061281b929190612ad4565b505050600180600280549050039080600181540180825580915050600190039060005260206000200160009091909190915055600160028054905003600560003373ffffffffffffffffffffffffffffffffffffffff1673ffffffffffffffffffffffffffffffffffffffff16815260200190815260200160002081905550836040518082805190602001908083835b602083106128ce57805182526020820191506020810190506020830392506128ab565b6001836020036101000a03801982511681845116808217855250505050505090500191505060405180910390203373ffffffffffffffffffffffffffffffffffffffff167f5ac8e276ecc440c94efca836d61658acf8509fc4744d84f9dc062ac35d2f1c7e846040518080602001828103825283818151815260200191508051906020019080838360005b83811015612974578082015181840152602081019050612959565b50505050905090810190601f1680156129a15780820380516001836020036101000a031916815260200191505b509250505060405180910390a350505050565b828054828255906000526020600020908101928215612a43579160200282015b82811115612a4257823573ffffffffffffffffffffffffffffffffffffffff168260006101000a81548173ffffffffffffffffffffffffffffffffffffffff021916908373ffffffffffffffffffffffffffffffffffffffff160217905550916020019190600101906129d4565b5b509050612a509190612b54565b5090565b828054600181600116156101000203166002900490600052602060002090601f016020900481019282601f10612a9557805160ff1916838001178555612ac3565b82800160010185558215612ac3579182015b82811115612ac2578251825591602001919060010190612aa7565b5b509050612ad09190612b97565b5090565b828054600181600116156101000203166002900490600052602060002090601f016020900481019282601f10612b1557805160ff1916838001178555612b43565b82800160010185558215612b43579182015b82811115612b42578251825591602001919060010190612b27565b5b509050612b509190612b97565b5090565b612b9491905b80821115612b9057600081816101000a81549073ffffffffffffffffffffffffffffffffffffffff021916905550600101612b5a565b5090565b90565b612bb991905b80821115612bb5576000816000905550600101612b9d565b5090565b9056fe6163636f756e74206d757374206861766520617070726f76656420746f20726563656976652063616d706169676e736f7074696f6e20666f72205f73686f756c6450726f7669646520616c7265616479207365746163636f756e7420616c72656164792068617320616e206163746976652063616d706169676e6163636f756e74206d757374206861766520616e206163746976652063616d706169676e6f7074696f6e20666f72205f73686f756c645265636569766520616c72656164792073657463616d706169676e5468726561644964206d757374206e6f7420626520616c7265616479207365746f6e6c792063616d706169676e206f776e65722063616e207669657720726573756c7473617272617920706172616d205f7061796f7574732063616e6e6f7420626520656d707479a26469706673582212205b046d7f27c017df497aef3fcd40235b1f190639cb6835aedd1fd8d2dc91014964736f6c63430006000033","source":"pragma solidity ^0.6.0;\n\nimport '@openzeppelin/contracts/math/SafeMath.sol';\n\n/**\n * @title Babylon\n *\n * @dev This contract manages the exchange of hbz tokens for Babylonia tokens, with a locking period\n * in place before tokens can be claimed\n */\ncontract MobilityCampaigns {\n  using SafeMath for uint256;\n\n  event CampaignCreated(address indexed owner, string indexed organization, string title);\n  event CampaignCompleted(address owner, uint indexed campaignId);\n  event CampaignResultsReleased(uint indexed campaignId, string threadId);\n\n  struct Campaign {\n    address creator;      // the address of the creator\n    string organization;\n    string category;\n    string title;\n    string ipfsHash;\n    uint budgetWei;\n    uint createdAt;          // datetime created\n    uint expiresAt;          // datetime when no longer valid\n    bool isActive;           // set to false when no longer active\n    string campaignThreadId; // results of campaign only accessible to the creator\n  }\n\n  address public graphIndexer;\n  uint[] private activeCampaigns;\n  Campaign[] private campaigns;\n  mapping(address => bool) public dataProviders; // mapping of accounts that share data\n  mapping(address => bool) public campaignReceivers; // mapping of accounts that receive campaigns\n  mapping(address => uint) public activeCampaignOwners; // mapping of accounts that own campaigns (idx to activeCampaigns)\n  mapping(uint => address[]) private campaignPayouts; // mapping of accounts that receive campaigns\n\n  uint public totalCampaignReceivers;\n  uint public totalDataProviders;\n\n  modifier onlyGraphIndexer() {\n    require(msg.sender == graphIndexer, 'msg.sender must be graphIndexer');\n    _;\n  }\n\n  modifier onlyCampaignReceivers() {\n    require(campaignReceivers[msg.sender] == true, 'account must have approved to receive campaigns');\n    _;\n  }\n\n  modifier onlyActiveCampaignOwners() {\n    require(activeCampaignOwners[msg.sender] != 0, 'account must have an active campaign');\n    _;\n  }\n\n  modifier noActiveCampaign() {\n    require(activeCampaignOwners[msg.sender] == 0, 'account already has an active campaign');\n    _;\n  }\n\n  /**\n   * Contract constructor\n   */\n  constructor() public {\n    // indexing service The Graph\n    // graphIndexer = _graphIndexer;\n\n    totalCampaignReceivers = 0;\n    totalDataProviders = 0;\n\n    // take care of zero-index for storage array\n    campaigns.push(Campaign({\n      creator: address(0),\n      organization: '',\n      category: '',\n      title: '',\n      ipfsHash: '',\n      budgetWei: 0,\n      createdAt: 0,\n      expiresAt: 0,\n      isActive: false,\n      campaignThreadId: ''\n    }));\n  }\n\n  /**\n   * Do not accept ETH\n   */\n  receive() external payable {\n    require(msg.sender == address(0), 'not accepting ETH');\n  }\n\n  // creator must send info + ETH\n  function createCampaign(\n    string memory _organization,\n    string memory _category,\n    string memory _title,\n    string memory _ipfsHash\n  ) public\n    payable\n    noActiveCampaign\n  {\n    // assert budget\n    require(msg.value > 0, 'value must be greater than 0');\n\n    // @TODO: allocate budget accordingly\n    // @TODO: set expiredAt\n\n    // create record in storage, update lookup arrays\n    _createCampaignRecord(\n      _organization,\n      _category,\n      _title,\n      _ipfsHash\n    );\n  }\n\n  function getReceiveCampaign(address _a) public view returns (bool) {\n    return campaignReceivers[_a];\n  }\n\n  function getProvideData(address _a) public view returns (bool) {\n    return dataProviders[_a];\n  }\n\n  function toggleReceiveCampaign(bool _shouldReceive) external {\n    require(campaignReceivers[msg.sender] != _shouldReceive, 'option for _shouldReceive already set');\n    campaignReceivers[msg.sender] = _shouldReceive;\n    if (_shouldReceive) {\n      totalCampaignReceivers = totalCampaignReceivers + 1;\n    } else {\n      totalCampaignReceivers = totalCampaignReceivers - 1;\n    }\n  }\n\n  function toggleProvideData(bool _shouldProvide) external {\n    require(dataProviders[msg.sender] != _shouldProvide, 'option for _shouldProvide already set');\n    dataProviders[msg.sender] = _shouldProvide;\n    if (_shouldProvide) {\n      totalDataProviders = totalDataProviders + 1;\n    } else {\n      totalDataProviders = totalDataProviders - 1;\n    }\n  }\n\n  // return active campaign for owners\n  function getActiveCampaign()\n    external\n    view\n    onlyActiveCampaignOwners\n    returns(\n      string memory organization,\n      string memory category,\n      string memory title,\n      string memory ipfsHash,\n      uint budgetWei,\n      uint createdAt\n    )\n  {\n    Campaign storage campaign = campaigns[activeCampaignOwners[msg.sender]];\n    organization = campaign.organization;\n    category = campaign.category;\n    title = campaign.title;\n    ipfsHash = campaign.ipfsHash;\n    budgetWei = campaign.budgetWei;\n    createdAt = campaign.createdAt;\n  }\n\n  /*\n   * @TODO: _payouts param is set from indexer reading trips where campaign.createdAt < trip.endAt < campaign.expiredAt\n   */\n  function completeCampaign(address[] calldata _payouts)\n    external\n    onlyActiveCampaignOwners\n    returns (uint)\n  {\n    require(_payouts.length > 0, 'array param _payouts cannot be empty');\n\n    campaignPayouts[activeCampaignOwners[msg.sender]] = _payouts;\n    campaigns[activeCampaignOwners[msg.sender]].isActive = false;\n\n    emit CampaignCompleted(msg.sender, activeCampaignOwners[msg.sender]);\n\n    return activeCampaignOwners[msg.sender];\n  }\n\n  function setCampaignResultsThread(uint _id, string memory _thread)\n    public\n    onlyGraphIndexer\n  {\n    // sanity check\n    require(campaigns[_id].isActive == false, 'campaign must be completed');\n    require(bytes(campaigns[_id].campaignThreadId).length == 0, 'campaignThreadId must not be already set');\n\n    campaigns[_id].campaignThreadId = _thread;\n\n    emit CampaignResultsReleased(_id, _thread);\n  }\n\n  function getCampaignResults(uint _id)\n    external\n    view\n    returns (string memory)\n  {\n    Campaign storage campaign = campaigns[_id];\n\n    require(campaign.creator == msg.sender, 'only campaign owner can view results');\n    require(campaign.isActive == false, 'campaign must be completed');\n\n    return campaign.campaignThreadId;\n  }\n\n  // return active campaign ids for receivers\n  function getActiveCampaignIdsUsers()\n    external\n    view\n    onlyCampaignReceivers\n    returns(uint[] memory)\n  {\n    return activeCampaigns;\n  }\n\n\n  // return campaign for owners\n  function getActiveCampaignUsers(uint _id)\n    external\n    view\n    onlyCampaignReceivers\n    returns(\n      string memory organization,\n      string memory category,\n      string memory title,\n      string memory ipfsHash\n    )\n  {\n    Campaign storage campaign = campaigns[_id];\n    organization = campaign.organization;\n    category = campaign.category;\n    title = campaign.title;\n    ipfsHash = campaign.ipfsHash;\n  }\n\n  // return active campaigns\n  function getCampaignsIndexer()\n    external\n    view\n    onlyGraphIndexer\n    returns(\n      string memory organization,\n      string memory category,\n      string memory title,\n      uint createdAt\n    )\n  {\n    Campaign storage campaign = campaigns[activeCampaigns[activeCampaignOwners[msg.sender]]];\n    organization = campaign.organization;\n    category = campaign.category;\n    title = campaign.title;\n    createdAt = campaign.createdAt;\n  }\n\n  /**\n   * Creates a record for the token exchange\n   */\n  function _createCampaignRecord(\n    string memory _organization,\n    string memory _category,\n    string memory _title,\n    string memory _ipfsHash\n  )\n    internal\n  {\n    // add to storage and lookup\n    campaigns.push(Campaign({\n      creator: msg.sender,\n      organization: _organization,\n      category: _category,\n      title: _title,\n      ipfsHash: _ipfsHash,\n      budgetWei: msg.value,\n      createdAt: block.timestamp, // solium-disable-line security/no-block-members, whitespace\n      expiresAt: 0, // @TODO:\n      isActive: true,\n      campaignThreadId: ''\n    }));\n    activeCampaigns.push(campaigns.length - 1);\n    activeCampaignOwners[msg.sender] = campaigns.length - 1;\n\n    emit CampaignCreated(msg.sender, _organization, _title);\n  }\n\n  // make a campaign inactive\n  function _removeActiveCampaignAt(uint _idx) internal returns(bool) {\n    require(_idx < activeCampaigns.length, 'out of range exception - _idx');\n    require(activeCampaigns[_idx] < campaigns.length, 'out of range exception - activeCampaigns[_idx]');\n    require(campaigns[activeCampaigns[_idx]].isActive == true, 'campaign must be active');\n\n    campaigns[activeCampaigns[_idx]].isActive = false;\n    activeCampaigns[_idx] = activeCampaigns[activeCampaigns.length - 1];\n    delete activeCampaigns[activeCampaigns.length - 1];\n\n    return true;\n  }\n}\n","sourcePath":"/Users/carlos/Desktop/imthatcarlos/mobility-marketplace-contracts/contracts/MobilityCampaigns.sol","compiler":{"name":"solc","version":"0.6.0+commit.26b70077.Emscripten.clang"},"schemaVersion":"3.1.0","updatedAt":"2020-07-27T03:45:35.793Z","devdoc":{"details":"This contract manages the exchange of hbz tokens for Babylonia tokens, with a locking period in place before tokens can be claimed","methods":{},"title":"Babylon"},"userdoc":{"methods":{"constructor":"Contract constructor"}}}