{"contractName":"MobilityCampaigns","abi":[{"inputs":[],"stateMutability":"nonpayable","type":"constructor"},{"anonymous":false,"inputs":[{"indexed":false,"internalType":"address","name":"owner","type":"address"},{"indexed":true,"internalType":"uint256","name":"campaignId","type":"uint256"},{"indexed":false,"internalType":"uint256","name":"refundedWei","type":"uint256"}],"name":"CampaignCompleted","type":"event"},{"anonymous":false,"inputs":[{"indexed":true,"internalType":"address","name":"owner","type":"address"},{"indexed":true,"internalType":"string","name":"organization","type":"string"},{"indexed":false,"internalType":"string","name":"title","type":"string"},{"indexed":false,"internalType":"uint256","name":"newTotalRewardsWei","type":"uint256"}],"name":"CampaignCreated","type":"event"},{"inputs":[],"name":"EXPIRES_IN_SECONDS","outputs":[{"internalType":"uint256","name":"","type":"uint256"}],"stateMutability":"view","type":"function"},{"inputs":[],"name":"MIN_REWARDS_WITHDRAW_WEI","outputs":[{"internalType":"uint256","name":"","type":"uint256"}],"stateMutability":"view","type":"function"},{"inputs":[{"internalType":"address","name":"","type":"address"}],"name":"activeCampaignOwners","outputs":[{"internalType":"uint256","name":"","type":"uint256"}],"stateMutability":"view","type":"function"},{"inputs":[{"internalType":"address","name":"","type":"address"}],"name":"campaignReceivers","outputs":[{"internalType":"uint256","name":"","type":"uint256"}],"stateMutability":"view","type":"function"},{"inputs":[{"internalType":"address","name":"","type":"address"}],"name":"dataProviders","outputs":[{"internalType":"bool","name":"","type":"bool"}],"stateMutability":"view","type":"function"},{"inputs":[],"name":"graphIndexer","outputs":[{"internalType":"address","name":"","type":"address"}],"stateMutability":"view","type":"function"},{"inputs":[],"name":"rewardsWithdrawnWei","outputs":[{"internalType":"uint256","name":"","type":"uint256"}],"stateMutability":"view","type":"function"},{"inputs":[],"name":"totalCampaignReceivers","outputs":[{"internalType":"uint256","name":"","type":"uint256"}],"stateMutability":"view","type":"function"},{"inputs":[],"name":"totalDataProviders","outputs":[{"internalType":"uint256","name":"","type":"uint256"}],"stateMutability":"view","type":"function"},{"inputs":[],"name":"totalRewardsWei","outputs":[{"internalType":"uint256","name":"","type":"uint256"}],"stateMutability":"view","type":"function"},{"stateMutability":"payable","type":"receive"},{"inputs":[{"internalType":"string","name":"_organization","type":"string"},{"internalType":"string","name":"_category","type":"string"},{"internalType":"string","name":"_title","type":"string"},{"internalType":"string","name":"_ipfsHash","type":"string"},{"internalType":"string","name":"_key","type":"string"}],"name":"createCampaign","outputs":[],"stateMutability":"payable","type":"function"},{"inputs":[{"internalType":"address","name":"_a","type":"address"}],"name":"getReceiveCampaign","outputs":[{"internalType":"bool","name":"","type":"bool"}],"stateMutability":"view","type":"function"},{"inputs":[{"internalType":"address","name":"_a","type":"address"}],"name":"getProvideData","outputs":[{"internalType":"bool","name":"","type":"bool"}],"stateMutability":"view","type":"function"},{"inputs":[],"name":"enableNewUser","outputs":[],"stateMutability":"nonpayable","type":"function"},{"inputs":[],"name":"disableUser","outputs":[],"stateMutability":"nonpayable","type":"function"},{"inputs":[],"name":"getActiveCampaignId","outputs":[{"internalType":"uint256","name":"","type":"uint256"}],"stateMutability":"view","type":"function"},{"inputs":[],"name":"getActiveCampaign","outputs":[{"internalType":"string","name":"organization","type":"string"},{"internalType":"string","name":"category","type":"string"},{"internalType":"string","name":"title","type":"string"},{"internalType":"string","name":"ipfsHash","type":"string"},{"internalType":"uint256","name":"budgetWei","type":"uint256"},{"internalType":"uint256","name":"createdAt","type":"uint256"},{"internalType":"uint256","name":"expiresAt","type":"uint256"}],"stateMutability":"view","type":"function"},{"inputs":[],"name":"calculateRefundedWei","outputs":[{"internalType":"uint256","name":"","type":"uint256"}],"stateMutability":"view","type":"function"},{"inputs":[],"name":"completeCampaign","outputs":[],"stateMutability":"nonpayable","type":"function"},{"inputs":[],"name":"getActiveCampaignIdsUsers","outputs":[{"internalType":"uint256[]","name":"","type":"uint256[]"}],"stateMutability":"view","type":"function"},{"inputs":[{"internalType":"uint256","name":"_id","type":"uint256"}],"name":"getActiveCampaignUsers","outputs":[{"internalType":"string","name":"organization","type":"string"},{"internalType":"string","name":"category","type":"string"},{"internalType":"string","name":"title","type":"string"},{"internalType":"string","name":"ipfsHash","type":"string"},{"internalType":"string","name":"key","type":"string"}],"stateMutability":"view","type":"function"},{"inputs":[],"name":"getCampaignsIndexer","outputs":[{"internalType":"string","name":"organization","type":"string"},{"internalType":"string","name":"category","type":"string"},{"internalType":"string","name":"title","type":"string"},{"internalType":"uint256","name":"createdAt","type":"uint256"}],"stateMutability":"view","type":"function"},{"inputs":[],"name":"withdrawRewards","outputs":[],"stateMutability":"nonpayable","type":"function"}],"bytecode":"0x60806040526213c680600755670214e8348c4f00006008553480156200002457600080fd5b5060006009819055506000600a819055506002604051806101a00160405280600073ffffffffffffffffffffffffffffffffffffffff1681526020016040518060200160405280600081525081526020016040518060200160405280600081525081526020016040518060200160405280600081525081526020016040518060200160405280600081525081526020016040518060200160405280600081525081526020016000815260200160008152602001600081526020016000151581526020016000815260200160008152602001600081525090806001815401808255809150506001900390600052602060002090600d020160009091909190915060008201518160000160006101000a81548173ffffffffffffffffffffffffffffffffffffffff021916908373ffffffffffffffffffffffffffffffffffffffff1602179055506020820151816001019080519060200190620001889291906200035d565b506040820151816002019080519060200190620001a79291906200035d565b506060820151816003019080519060200190620001c69291906200035d565b506080820151816004019080519060200190620001e59291906200035d565b5060a0820151816005019080519060200190620002049291906200035d565b5060c0820151816006015560e0820151816007015561010082015181600801556101208201518160090160006101000a81548160ff02191690831515021790555061014082015181600a015561016082015181600b015561018082015181600c0155505060036040518060c00160405280600073ffffffffffffffffffffffffffffffffffffffff168152602001600081526020016000815260200160008152602001600081526020016000815250908060018154018082558091505060019003906000526020600020906006020160009091909190915060008201518160000160006101000a81548173ffffffffffffffffffffffffffffffffffffffff021916908373ffffffffffffffffffffffffffffffffffffffff1602179055506020820151816001015560408201518160020155606082015181600301556080820151816004015560a0820151816005015550506200040c565b828054600181600116156101000203166002900490600052602060002090601f016020900481019282601f10620003a057805160ff1916838001178555620003d1565b82800160010185558215620003d1579182015b82811115620003d0578251825591602001919060010190620003b3565b5b509050620003e09190620003e4565b5090565b6200040991905b8082111562000405576000816000905550600101620003eb565b5090565b90565b613209806200041c6000396000f3fe6080604052600436106101445760003560e01c806399f75bc2116100b6578063bebd461e1161006f578063bebd461e14610dfd578063c0ffcdec14610e28578063c36f628614610e91578063c7b8981c14610ee8578063e23750ff14610eff578063e77ab15914610f2a576101ed565b806399f75bc214610a95578063a51dcde714610cf9578063b229967714610d24578063b31ac35314610d4f578063b3e7d19214610d7a578063b7acb19c14610de6576101ed565b80634cf8af9c116101085780634cf8af9c146104ad5780635497e5cd146107c4578063780aac031461082d5780637b95a3f9146108965780638bd3a2b714610a0557806394e90fc114610a6a576101ed565b80630108e977146101f257806306bcef6e1461020957806310925a7c14610234578063361be3521461025f5780633b80728614610448576101ed565b366101ed57600073ffffffffffffffffffffffffffffffffffffffff163373ffffffffffffffffffffffffffffffffffffffff16146101eb576040517f08c379a00000000000000000000000000000000000000000000000000000000081526004018080602001828103825260118152602001807f6e6f7420616363657074696e672045544800000000000000000000000000000081525060200191505060405180910390fd5b005b600080fd5b3480156101fe57600080fd5b50610207610f41565b005b34801561021557600080fd5b5061021e6111a8565b6040518082815260200191505060405180910390f35b34801561024057600080fd5b506102496111ae565b6040518082815260200191505060405180910390f35b34801561026b57600080fd5b5061027461128d565b604051808060200180602001806020018060200188815260200187815260200186815260200185810385528c818151815260200191508051906020019080838360005b838110156102d25780820151818401526020810190506102b7565b50505050905090810190601f1680156102ff5780820380516001836020036101000a031916815260200191505b5085810384528b818151815260200191508051906020019080838360005b8381101561033857808201518184015260208101905061031d565b50505050905090810190601f1680156103655780820380516001836020036101000a031916815260200191505b5085810383528a818151815260200191508051906020019080838360005b8381101561039e578082015181840152602081019050610383565b50505050905090810190601f1680156103cb5780820380516001836020036101000a031916815260200191505b50858103825289818151815260200191508051906020019080838360005b838110156104045780820151818401526020810190506103e9565b50505050905090810190601f1680156104315780820380516001836020036101000a031916815260200191505b509b50505050505050505050505060405180910390f35b34801561045457600080fd5b506104976004803603602081101561046b57600080fd5b81019080803573ffffffffffffffffffffffffffffffffffffffff169060200190929190505050611629565b6040518082815260200191505060405180910390f35b6107c2600480360360a08110156104c357600080fd5b81019080803590602001906401000000008111156104e057600080fd5b8201836020820111156104f257600080fd5b8035906020019184600183028401116401000000008311171561051457600080fd5b91908080601f016020809104026020016040519081016040528093929190818152602001838380828437600081840152601f19601f8201169050808301925050505050505091929192908035906020019064010000000081111561057757600080fd5b82018360208201111561058957600080fd5b803590602001918460018302840111640100000000831117156105ab57600080fd5b91908080601f016020809104026020016040519081016040528093929190818152602001838380828437600081840152601f19601f8201169050808301925050505050505091929192908035906020019064010000000081111561060e57600080fd5b82018360208201111561062057600080fd5b8035906020019184600183028401116401000000008311171561064257600080fd5b91908080601f016020809104026020016040519081016040528093929190818152602001838380828437600081840152601f19601f820116905080830192505050505050509192919290803590602001906401000000008111156106a557600080fd5b8201836020820111156106b757600080fd5b803590602001918460018302840111640100000000831117156106d957600080fd5b91908080601f016020809104026020016040519081016040528093929190818152602001838380828437600081840152601f19601f8201169050808301925050505050505091929192908035906020019064010000000081111561073c57600080fd5b82018360208201111561074e57600080fd5b8035906020019184600183028401116401000000008311171561077057600080fd5b91908080601f016020809104026020016040519081016040528093929190818152602001838380828437600081840152601f19601f820116905080830192505050505050509192919290505050611641565b005b3480156107d057600080fd5b50610813600480360360208110156107e757600080fd5b81019080803573ffffffffffffffffffffffffffffffffffffffff169060200190929190505050611763565b604051808215151515815260200191505060405180910390f35b34801561083957600080fd5b5061087c6004803603602081101561085057600080fd5b81019080803573ffffffffffffffffffffffffffffffffffffffff1690602001909291905050506117b9565b604051808215151515815260200191505060405180910390f35b3480156108a257600080fd5b506108ab6117d9565b60405180806020018060200180602001858152602001848103845288818151815260200191508051906020019080838360005b838110156108f95780820151818401526020810190506108de565b50505050905090810190601f1680156109265780820380516001836020036101000a031916815260200191505b50848103835287818151815260200191508051906020019080838360005b8381101561095f578082015181840152602081019050610944565b50505050905090810190601f16801561098c5780820380516001836020036101000a031916815260200191505b50848103825286818151815260200191508051906020019080838360005b838110156109c55780820151818401526020810190506109aa565b50505050905090810190601f1680156109f25780820380516001836020036101000a031916815260200191505b5097505050505050505060405180910390f35b348015610a1157600080fd5b50610a5460048036036020811015610a2857600080fd5b81019080803573ffffffffffffffffffffffffffffffffffffffff169060200190929190505050611b02565b6040518082815260200191505060405180910390f35b348015610a7657600080fd5b50610a7f611b1a565b6040518082815260200191505060405180910390f35b348015610aa157600080fd5b50610ace60048036036020811015610ab857600080fd5b8101908080359060200190929190505050611b20565b60405180806020018060200180602001806020018060200186810386528b818151815260200191508051906020019080838360005b83811015610b1e578082015181840152602081019050610b03565b50505050905090810190601f168015610b4b5780820380516001836020036101000a031916815260200191505b5086810385528a818151815260200191508051906020019080838360005b83811015610b84578082015181840152602081019050610b69565b50505050905090810190601f168015610bb15780820380516001836020036101000a031916815260200191505b50868103845289818151815260200191508051906020019080838360005b83811015610bea578082015181840152602081019050610bcf565b50505050905090810190601f168015610c175780820380516001836020036101000a031916815260200191505b50868103835288818151815260200191508051906020019080838360005b83811015610c50578082015181840152602081019050610c35565b50505050905090810190601f168015610c7d5780820380516001836020036101000a031916815260200191505b50868103825287818151815260200191508051906020019080838360005b83811015610cb6578082015181840152602081019050610c9b565b50505050905090810190601f168015610ce35780820380516001836020036101000a031916815260200191505b509a505050505050505050505060405180910390f35b348015610d0557600080fd5b50610d0e611f04565b6040518082815260200191505060405180910390f35b348015610d3057600080fd5b50610d39611f0a565b6040518082815260200191505060405180910390f35b348015610d5b57600080fd5b50610d64611f10565b6040518082815260200191505060405180910390f35b348015610d8657600080fd5b50610d8f611f16565b6040518080602001828103825283818151815260200191508051906020019060200280838360005b83811015610dd2578082015181840152602081019050610db7565b505050509050019250505060405180910390f35b348015610df257600080fd5b50610dfb612006565b005b348015610e0957600080fd5b50610e126121f3565b6040518082815260200191505060405180910390f35b348015610e3457600080fd5b50610e7760048036036020811015610e4b57600080fd5b81019080803573ffffffffffffffffffffffffffffffffffffffff16906020019092919050505061229a565b604051808215151515815260200191505060405180910390f35b348015610e9d57600080fd5b50610ea66122e5565b604051808273ffffffffffffffffffffffffffffffffffffffff1673ffffffffffffffffffffffffffffffffffffffff16815260200191505060405180910390f35b348015610ef457600080fd5b50610efd61230a565b005b348015610f0b57600080fd5b50610f146126d0565b6040518082815260200191505060405180910390f35b348015610f3657600080fd5b50610f3f6126d6565b005b6000600560003373ffffffffffffffffffffffffffffffffffffffff1673ffffffffffffffffffffffffffffffffffffffff1681526020019081526020016000205414610ff6576040517f08c379a00000000000000000000000000000000000000000000000000000000081526004018080602001828103825260178152602001807f7573657220616c7265616479207265676973746572656400000000000000000081525060200191505060405180910390fd5b60036040518060c001604052803373ffffffffffffffffffffffffffffffffffffffff168152602001428152602001600160028054905003815260200160008152602001600081526020016000815250908060018154018082558091505060019003906000526020600020906006020160009091909190915060008201518160000160006101000a81548173ffffffffffffffffffffffffffffffffffffffff021916908373ffffffffffffffffffffffffffffffffffffffff1602179055506020820151816001015560408201518160020155606082015181600301556080820151816004015560a082015181600501555050600160038054905003600560003373ffffffffffffffffffffffffffffffffffffffff1673ffffffffffffffffffffffffffffffffffffffff168152602001908152602001600020819055506001600460003373ffffffffffffffffffffffffffffffffffffffff1673ffffffffffffffffffffffffffffffffffffffff16815260200190815260200160002060006101000a81548160ff0219169083151502179055506001600954016009819055506001600a5401600a81905550565b60075481565b600080600660003373ffffffffffffffffffffffffffffffffffffffff1673ffffffffffffffffffffffffffffffffffffffff168152602001908152602001600020541415611248576040517f08c379a00000000000000000000000000000000000000000000000000000000081526004018080602001828103825260248152602001806131716024913960400191505060405180910390fd5b600660003373ffffffffffffffffffffffffffffffffffffffff1673ffffffffffffffffffffffffffffffffffffffff16815260200190815260200160002054905090565b606080606080600080600080600660003373ffffffffffffffffffffffffffffffffffffffff1673ffffffffffffffffffffffffffffffffffffffff168152602001908152602001600020541415611330576040517f08c379a00000000000000000000000000000000000000000000000000000000081526004018080602001828103825260248152602001806131716024913960400191505060405180910390fd5b60006002600660003373ffffffffffffffffffffffffffffffffffffffff1673ffffffffffffffffffffffffffffffffffffffff168152602001908152602001600020548154811061137e57fe5b90600052602060002090600d02019050806001018054600181600116156101000203166002900480601f0160208091040260200160405190810160405280929190818152602001828054600181600116156101000203166002900480156114265780601f106113fb57610100808354040283529160200191611426565b820191906000526020600020905b81548152906001019060200180831161140957829003601f168201915b50505050509750806002018054600181600116156101000203166002900480601f0160208091040260200160405190810160405280929190818152602001828054600181600116156101000203166002900480156114c55780601f1061149a576101008083540402835291602001916114c5565b820191906000526020600020905b8154815290600101906020018083116114a857829003601f168201915b50505050509650806003018054600181600116156101000203166002900480601f0160208091040260200160405190810160405280929190818152602001828054600181600116156101000203166002900480156115645780601f1061153957610100808354040283529160200191611564565b820191906000526020600020905b81548152906001019060200180831161154757829003601f168201915b50505050509550806004018054600181600116156101000203166002900480601f0160208091040260200160405190810160405280929190818152602001828054600181600116156101000203166002900480156116035780601f106115d857610100808354040283529160200191611603565b820191906000526020600020905b8154815290600101906020018083116115e657829003601f168201915b505050505094508060060154935080600701549250806008015491505090919293949596565b60056020528060005260406000206000915090505481565b6000600660003373ffffffffffffffffffffffffffffffffffffffff1673ffffffffffffffffffffffffffffffffffffffff16815260200190815260200160002054146116d9576040517f08c379a000000000000000000000000000000000000000000000000000000000815260040180806020018281038252602681526020018061314b6026913960400191505060405180910390fd5b6000341161174f576040517f08c379a000000000000000000000000000000000000000000000000000000000815260040180806020018281038252601c8152602001807f76616c7565206d7573742062652067726561746572207468616e20300000000081525060200191505060405180910390fd5b61175c85858585856127d5565b5050505050565b6000600460008373ffffffffffffffffffffffffffffffffffffffff1673ffffffffffffffffffffffffffffffffffffffff16815260200190815260200160002060009054906101000a900460ff169050919050565b60046020528060005260406000206000915054906101000a900460ff1681565b606080606060008060009054906101000a900473ffffffffffffffffffffffffffffffffffffffff1673ffffffffffffffffffffffffffffffffffffffff163373ffffffffffffffffffffffffffffffffffffffff16146118a2576040517f08c379a000000000000000000000000000000000000000000000000000000000815260040180806020018281038252601f8152602001807f6d73672e73656e646572206d757374206265206772617068496e64657865720081525060200191505060405180910390fd5b600060026001600660003373ffffffffffffffffffffffffffffffffffffffff1673ffffffffffffffffffffffffffffffffffffffff16815260200190815260200160002054815481106118f257fe5b90600052602060002001548154811061190757fe5b90600052602060002090600d02019050806001018054600181600116156101000203166002900480601f0160208091040260200160405190810160405280929190818152602001828054600181600116156101000203166002900480156119af5780601f10611984576101008083540402835291602001916119af565b820191906000526020600020905b81548152906001019060200180831161199257829003601f168201915b50505050509450806002018054600181600116156101000203166002900480601f016020809104026020016040519081016040528092919081815260200182805460018160011615610100020316600290048015611a4e5780601f10611a2357610100808354040283529160200191611a4e565b820191906000526020600020905b815481529060010190602001808311611a3157829003601f168201915b50505050509350806003018054600181600116156101000203166002900480601f016020809104026020016040519081016040528092919081815260200182805460018160011615610100020316600290048015611aed5780601f10611ac257610100808354040283529160200191611aed565b820191906000526020600020905b815481529060010190602001808311611ad057829003601f168201915b50505050509250806007015491505090919293565b60066020528060005260406000206000915090505481565b60085481565b60608060608060606000600560003373ffffffffffffffffffffffffffffffffffffffff1673ffffffffffffffffffffffffffffffffffffffff1681526020019081526020016000205411611bc0576040517f08c379a000000000000000000000000000000000000000000000000000000000815260040180806020018281038252602f8152602001806130ee602f913960400191505060405180910390fd5b600060028781548110611bcf57fe5b90600052602060002090600d02019050806001018054600181600116156101000203166002900480601f016020809104026020016040519081016040528092919081815260200182805460018160011615610100020316600290048015611c775780601f10611c4c57610100808354040283529160200191611c77565b820191906000526020600020905b815481529060010190602001808311611c5a57829003601f168201915b50505050509550806002018054600181600116156101000203166002900480601f016020809104026020016040519081016040528092919081815260200182805460018160011615610100020316600290048015611d165780601f10611ceb57610100808354040283529160200191611d16565b820191906000526020600020905b815481529060010190602001808311611cf957829003601f168201915b50505050509450806003018054600181600116156101000203166002900480601f016020809104026020016040519081016040528092919081815260200182805460018160011615610100020316600290048015611db55780601f10611d8a57610100808354040283529160200191611db5565b820191906000526020600020905b815481529060010190602001808311611d9857829003601f168201915b50505050509350806004018054600181600116156101000203166002900480601f016020809104026020016040519081016040528092919081815260200182805460018160011615610100020316600290048015611e545780601f10611e2957610100808354040283529160200191611e54565b820191906000526020600020905b815481529060010190602001808311611e3757829003601f168201915b50505050509250806005018054600181600116156101000203166002900480601f016020809104026020016040519081016040528092919081815260200182805460018160011615610100020316600290048015611ef35780601f10611ec857610100808354040283529160200191611ef3565b820191906000526020600020905b815481529060010190602001808311611ed657829003601f168201915b505050505091505091939590929450565b600c5481565b600a5481565b600b5481565b60606000600560003373ffffffffffffffffffffffffffffffffffffffff1673ffffffffffffffffffffffffffffffffffffffff1681526020019081526020016000205411611fb0576040517f08c379a000000000000000000000000000000000000000000000000000000000815260040180806020018281038252602f8152602001806130ee602f913960400191505060405180910390fd5b6001805480602002602001604051908101604052809291908181526020018280548015611ffc57602002820191906000526020600020905b815481526020019060010190808311611fe8575b5050505050905090565b6000600660003373ffffffffffffffffffffffffffffffffffffffff1673ffffffffffffffffffffffffffffffffffffffff16815260200190815260200160002054141561209f576040517f08c379a00000000000000000000000000000000000000000000000000000000081526004018080602001828103825260248152602001806131716024913960400191505060405180910390fd5b60006120a9612b62565b90506120f3600660003373ffffffffffffffffffffffffffffffffffffffff1673ffffffffffffffffffffffffffffffffffffffff16815260200190815260200160002054612c27565b80600b5403600b819055503373ffffffffffffffffffffffffffffffffffffffff166108fc829081150290604051600060405180830381858888f19350505050158015612144573d6000803e3d6000fd5b50600660003373ffffffffffffffffffffffffffffffffffffffff1673ffffffffffffffffffffffffffffffffffffffff168152602001908152602001600020547f1a4f0299dbb3984d539c935e9bea81370bf55f1f3df4142afe6176ac306b85c63383604051808373ffffffffffffffffffffffffffffffffffffffff1673ffffffffffffffffffffffffffffffffffffffff1681526020018281526020019250505060405180910390a250565b600080600660003373ffffffffffffffffffffffffffffffffffffffff1673ffffffffffffffffffffffffffffffffffffffff16815260200190815260200160002054141561228d576040517f08c379a00000000000000000000000000000000000000000000000000000000081526004018080602001828103825260248152602001806131716024913960400191505060405180910390fd5b612295612b62565b905090565b600080600560008473ffffffffffffffffffffffffffffffffffffffff1673ffffffffffffffffffffffffffffffffffffffff16815260200190815260200160002054119050919050565b6000809054906101000a900473ffffffffffffffffffffffffffffffffffffffff1681565b6000600560003373ffffffffffffffffffffffffffffffffffffffff1673ffffffffffffffffffffffffffffffffffffffff16815260200190815260200160002054116123a2576040517f08c379a000000000000000000000000000000000000000000000000000000000815260040180806020018281038252602f8152602001806130ee602f913960400191505060405180910390fd5b60006003600560003373ffffffffffffffffffffffffffffffffffffffff1673ffffffffffffffffffffffffffffffffffffffff16815260200190815260200160002054815481106123f057fe5b906000526020600020906006020190506000806001600280549050039050600083600301541415612427578260020154915061242f565b826003015491505b8260020154811161248b576040517f08c379a000000000000000000000000000000000000000000000000000000000815260040180806020018281038252603f815260200180613195603f913960400191505060405180910390fd5b8181116124e3576040517f08c379a000000000000000000000000000000000000000000000000000000000815260040180806020018281038252603f815260200180613195603f913960400191505060405180910390fd5b6000600282815481106124f257fe5b90600052602060002090600d02019050600081600a01546002858154811061251657fe5b90600052602060002090600d0201600b015483600b0154038161253557fe5b0490506000836305f5e10087600201548603028161254f57fe5b04905060006305f5e1008284028161256357fe5b0490506008548110156125de576040517f08c379a000000000000000000000000000000000000000000000000000000000815260040180806020018281038252601b8152602001807f6d696e696d756d20746f207769746864726177206e6f74206d6574000000000081525060200191505060405180910390fd5b47811115612654576040517f08c379a00000000000000000000000000000000000000000000000000000000081526004018080602001828103825260198152602001807f4e4f5420454e4f55474820434f4e54524143542046554e44530000000000000081525060200191505060405180910390fd5b84876003018190555080876004018190555080876005015401876005018190555080600c5401600c819055503373ffffffffffffffffffffffffffffffffffffffff166108fc829081150290604051600060405180830381858888f193505050501580156126c6573d6000803e3d6000fd5b5050505050505050565b60095481565b6000600560003373ffffffffffffffffffffffffffffffffffffffff1673ffffffffffffffffffffffffffffffffffffffff168152602001908152602001600020541161278b576040517f08c379a00000000000000000000000000000000000000000000000000000000081526004018080602001828103825260138152602001807f75736572206e6f7420726567697374657265640000000000000000000000000081525060200191505060405180910390fd5b6127d3600560003373ffffffffffffffffffffffffffffffffffffffff1673ffffffffffffffffffffffffffffffffffffffff16815260200190815260200160002054612e7c565b565b34600b5401600b819055506002604051806101a001604052803373ffffffffffffffffffffffffffffffffffffffff168152602001878152602001868152602001858152602001848152602001838152602001348152602001428152602001600754420181526020016001151581526020016009548152602001600b548152602001600c5481525090806001815401808255809150506001900390600052602060002090600d020160009091909190915060008201518160000160006101000a81548173ffffffffffffffffffffffffffffffffffffffff021916908373ffffffffffffffffffffffffffffffffffffffff16021790555060208201518160010190805190602001906128e9929190613048565b506040820151816002019080519060200190612906929190613048565b506060820151816003019080519060200190612923929190613048565b506080820151816004019080519060200190612940929190613048565b5060a082015181600501908051906020019061295d929190613048565b5060c0820151816006015560e0820151816007015561010082015181600801556101208201518160090160006101000a81548160ff02191690831515021790555061014082015181600a015561016082015181600b015561018082015181600c01555050600180600280549050039080600181540180825580915050600190039060005260206000200160009091909190915055600160028054905003600660003373ffffffffffffffffffffffffffffffffffffffff1673ffffffffffffffffffffffffffffffffffffffff16815260200190815260200160002081905550846040518082805190602001908083835b60208310612a715780518252602082019150602081019050602083039250612a4e565b6001836020036101000a03801982511681845116808217855250505050505090500191505060405180910390203373ffffffffffffffffffffffffffffffffffffffff167ff52c9cc12e49f970500d74de364b9325a16b8da57f00c1497fba05167673577c85600b546040518080602001838152602001828103825284818151815260200191508051906020019080838360005b83811015612b20578082015181840152602081019050612b05565b50505050905090810190601f168015612b4d5780820380516001836020036101000a031916815260200191505b50935050505060405180910390a35050505050565b6000806002600660003373ffffffffffffffffffffffffffffffffffffffff1673ffffffffffffffffffffffffffffffffffffffff1681526020019081526020016000205481548110612bb157fe5b90600052602060002090600d020190506000600260016002805490500381548110612bd857fe5b90600052602060002090600d02019050600082600b015482600b0154039050600081846006015481612c0657fe5b049050600084600c015484600c015403905081818403029550505050505090565b6001805490508110612ca1576040517f08c379a000000000000000000000000000000000000000000000000000000000815260040180806020018281038252601d8152602001807f6f7574206f662072616e676520657863657074696f6e202d205f69647800000081525060200191505060405180910390fd5b60028054905060018281548110612cb457fe5b906000526020600020015410612d15576040517f08c379a000000000000000000000000000000000000000000000000000000000815260040180806020018281038252602e81526020018061311d602e913960400191505060405180910390fd5b60011515600260018381548110612d2857fe5b906000526020600020015481548110612d3d57fe5b90600052602060002090600d020160090160009054906101000a900460ff16151514612dd1576040517f08c379a00000000000000000000000000000000000000000000000000000000081526004018080602001828103825260178152602001807f63616d706169676e206d7573742062652061637469766500000000000000000081525060200191505060405180910390fd5b6000600260018381548110612de257fe5b906000526020600020015481548110612df757fe5b90600052602060002090600d020160090160006101000a81548160ff02191690831515021790555060018080805490500381548110612e3257fe5b906000526020600020015460018281548110612e4a57fe5b906000526020600020018190555060018080805490500381548110612e6b57fe5b906000526020600020016000905550565b6003805490508110612ef6576040517f08c379a000000000000000000000000000000000000000000000000000000000815260040180806020018281038252601d8152602001807f6f7574206f662072616e676520657863657074696f6e202d205f69647800000081525060200191505060405180910390fd5b600360016003805490500381548110612f0b57fe5b906000526020600020906006020160038281548110612f2657fe5b90600052602060002090600602016000820160009054906101000a900473ffffffffffffffffffffffffffffffffffffffff168160000160006101000a81548173ffffffffffffffffffffffffffffffffffffffff021916908373ffffffffffffffffffffffffffffffffffffffff1602179055506001820154816001015560028201548160020155600382015481600301556004820154816004015560058201548160050155905050600360016003805490500381548110612fe557fe5b9060005260206000209060060201600080820160006101000a81549073ffffffffffffffffffffffffffffffffffffffff021916905560018201600090556002820160009055600382016000905560048201600090556005820160009055505050565b828054600181600116156101000203166002900490600052602060002090601f016020900481019282601f1061308957805160ff19168380011785556130b7565b828001600101855582156130b7579182015b828111156130b657825182559160200191906001019061309b565b5b5090506130c491906130c8565b5090565b6130ea91905b808211156130e65760008160009055506001016130ce565b5090565b9056fe6163636f756e74206d757374206861766520617070726f76656420746f20726563656976652063616d706169676e736f7574206f662072616e676520657863657074696f6e202d2061637469766543616d706169676e735b5f6964785d6163636f756e7420616c72656164792068617320616e206163746976652063616d706169676e6163636f756e74206d757374206861766520616e206163746976652063616d706169676e63616e6e6f7420776974686472617720756e74696c206174206c656173742031206d6f72652063616d706169676e20686173206265656e2063726561746564a264697066735822122008f68ebbfeb96ef7abf8e49ef2cf52cdac39fee55d00a46cd6590c5b464898df64736f6c63430006000033","source":"// SPDX-License-Identifier: MIT\n\npragma solidity ^0.6.0;\n\nimport '@openzeppelin/contracts/math/SafeMath.sol';\n\n/**\n * @title Babylon\n *\n * @dev This contract manages the exchange of hbz tokens for Babylonia tokens, with a locking period\n * in place before tokens can be claimed\n */\ncontract MobilityCampaigns {\n  using SafeMath for uint256;\n\n  event CampaignCreated(address indexed owner, string indexed organization, string title, uint newTotalRewardsWei);\n  event CampaignCompleted(address owner, uint indexed campaignId, uint refundedWei);\n\n  struct Campaign {\n    address creator;      // the address of the creator\n    string organization;\n    string category;\n    string title;\n    string ipfsHash;\n    string key;\n    uint budgetWei;\n    uint createdAt;                // datetime created\n    uint expiresAt;                // datetime when no longer valid\n    bool isActive;                 // set to false when no longer active\n    uint currentCampaignReceivers; // how many users receiving ads at time of creation\n    uint currentRewardsWei;        // how much wei for rewards at time of creation (excluding this one)\n    uint currentClaimedWei;\n  }\n\n  struct RewardOwner {\n    address owner;\n    uint enabledAt;\n    uint enabledAtCampaignIdx;    // fetch all campaigns > this idx\n    uint lastRewardAtCampaignIdx;\n    uint lastRewardWei;\n    uint totalRewardsWei;\n  }\n\n  address public graphIndexer;\n  uint[] private activeCampaigns;\n  Campaign[] private campaigns;\n  RewardOwner[] private rewardOwners;\n\n  mapping(address => bool) public dataProviders; // mapping of accounts that share data\n  mapping(address => uint) public campaignReceivers; // mapping of accounts that receive campaigns to their rewards data\n  mapping(address => uint) public activeCampaignOwners; // mapping of accounts that own campaigns (idx to activeCampaigns)\n\n  uint public EXPIRES_IN_SECONDS = 1296000; // 15 min\n  uint public MIN_REWARDS_WITHDRAW_WEI = 150000000000000000; // 0.15 ETH\n  uint public totalCampaignReceivers;\n  uint public totalDataProviders;\n  uint public totalRewardsWei;\n  uint public rewardsWithdrawnWei;\n\n  modifier onlyGraphIndexer() {\n    require(msg.sender == graphIndexer, 'msg.sender must be graphIndexer');\n    _;\n  }\n\n  modifier onlyCampaignReceivers() {\n    require(campaignReceivers[msg.sender] > 0, 'account must have approved to receive campaigns');\n    _;\n  }\n\n  modifier onlyActiveCampaignOwners() {\n    require(activeCampaignOwners[msg.sender] != 0, 'account must have an active campaign');\n    _;\n  }\n\n  modifier noActiveCampaign() {\n    require(activeCampaignOwners[msg.sender] == 0, 'account already has an active campaign');\n    _;\n  }\n\n  /**\n   * Contract constructor\n   */\n  constructor() public {\n    // indexing service The Graph\n    // graphIndexer = _graphIndexer;\n\n    totalCampaignReceivers = 0;\n    totalDataProviders = 0;\n\n    // take care of zero-index for storage arrays\n    campaigns.push(Campaign({\n      creator: address(0),\n      organization: '',\n      category: '',\n      title: '',\n      ipfsHash: '',\n      key: '',\n      budgetWei: 0,\n      createdAt: 0,\n      expiresAt: 0,\n      isActive: false,\n      currentCampaignReceivers: 0,\n      currentRewardsWei: 0,\n      currentClaimedWei: 0\n    }));\n\n    rewardOwners.push(RewardOwner({\n      owner: address(0),\n      enabledAt: 0,\n      enabledAtCampaignIdx: 0,\n      lastRewardAtCampaignIdx: 0,\n      lastRewardWei: 0,\n      totalRewardsWei: 0\n    }));\n  }\n\n  /**\n   * Do not accept ETH\n   */\n  receive() external payable {\n    require(msg.sender == address(0), 'not accepting ETH');\n  }\n\n  // creator must send info + ETH\n  function createCampaign(\n    string memory _organization,\n    string memory _category,\n    string memory _title,\n    string memory _ipfsHash,\n    string memory _key\n  ) public\n    payable\n    noActiveCampaign\n  {\n    // assert budget\n    require(msg.value > 0, 'value must be greater than 0');\n\n    // @TODO: set expiredAt\n\n    // create record in storage, update lookup arrays\n    _createCampaignRecord(\n      _organization,\n      _category,\n      _title,\n      _ipfsHash,\n      _key\n    );\n  }\n\n  function getReceiveCampaign(address _a) public view returns (bool) {\n    return campaignReceivers[_a] > 0;\n  }\n\n  function getProvideData(address _a) public view returns (bool) {\n    return dataProviders[_a];\n  }\n\n  function enableNewUser() external {\n    // sanity check\n    require(campaignReceivers[msg.sender] == 0, 'user already registered');\n\n    // add to storage and lookup\n    rewardOwners.push(RewardOwner({\n      owner: msg.sender,\n      enabledAt: block.timestamp,\n      enabledAtCampaignIdx: (campaigns.length - 1), // [bogus, real]\n      lastRewardAtCampaignIdx: 0,\n      lastRewardWei: 0,\n      totalRewardsWei: 0\n    }));\n\n    campaignReceivers[msg.sender] = rewardOwners.length - 1;\n    dataProviders[msg.sender] = true;\n\n    totalCampaignReceivers = totalCampaignReceivers + 1;\n    totalDataProviders = totalDataProviders + 1;\n  }\n\n  function disableUser() external {\n    // sanity check\n    require(campaignReceivers[msg.sender] > 0, 'user not registered');\n\n    _removeRewardOwnerAt(campaignReceivers[msg.sender]);\n  }\n\n  // return active campaign id for owners\n  function getActiveCampaignId()\n    external\n    view\n    onlyActiveCampaignOwners\n    returns(uint)\n  {\n    return activeCampaignOwners[msg.sender];\n  }\n\n  // return active campaign for owners\n  function getActiveCampaign()\n    external\n    view\n    onlyActiveCampaignOwners\n    returns(\n      string memory organization,\n      string memory category,\n      string memory title,\n      string memory ipfsHash,\n      uint budgetWei,\n      uint createdAt,\n      uint expiresAt\n    )\n  {\n    Campaign storage campaign = campaigns[activeCampaignOwners[msg.sender]];\n    organization = campaign.organization;\n    category = campaign.category;\n    title = campaign.title;\n    ipfsHash = campaign.ipfsHash;\n    budgetWei = campaign.budgetWei;\n    createdAt = campaign.createdAt;\n    expiresAt = campaign.expiresAt;\n  }\n\n  function calculateRefundedWei()\n    external\n    view\n    onlyActiveCampaignOwners\n    returns (uint)\n  {\n    return _calculateRefundedBudget();\n  }\n\n  function completeCampaign()\n    external\n    onlyActiveCampaignOwners\n  {\n    // sanity check\n    // require(campaigns[activeCampaignOwners[msg.sender]].expiresAt > block.timestamp, 'campaign not yet expired');\n\n    uint refund = _calculateRefundedBudget();\n\n    _removeActiveCampaignAt(activeCampaignOwners[msg.sender]);\n\n    // @TODO: is this the right storage var to update?\n    totalRewardsWei = totalRewardsWei - refund;\n\n    msg.sender.transfer(refund);\n\n    emit CampaignCompleted(msg.sender, activeCampaignOwners[msg.sender], refund);\n  }\n\n  // return active campaign ids for receivers\n  function getActiveCampaignIdsUsers()\n    external\n    view\n    onlyCampaignReceivers\n    returns(uint[] memory)\n  {\n    return activeCampaigns;\n  }\n\n\n  // return campaign for owners\n  function getActiveCampaignUsers(uint _id)\n    external\n    view\n    onlyCampaignReceivers\n    returns(\n      string memory organization,\n      string memory category,\n      string memory title,\n      string memory ipfsHash,\n      string memory key\n    )\n  {\n    Campaign storage campaign = campaigns[_id];\n    organization = campaign.organization;\n    category = campaign.category;\n    title = campaign.title;\n    ipfsHash = campaign.ipfsHash;\n    key = campaign.key;\n  }\n\n  // return active campaigns\n  function getCampaignsIndexer()\n    external\n    view\n    onlyGraphIndexer\n    returns(\n      string memory organization,\n      string memory category,\n      string memory title,\n      uint createdAt\n    )\n  {\n    Campaign storage campaign = campaigns[activeCampaigns[activeCampaignOwners[msg.sender]]];\n    organization = campaign.organization;\n    category = campaign.category;\n    title = campaign.title;\n    createdAt = campaign.createdAt;\n  }\n\n  // allows users to withdraw their rewards based on the number of campaigns that have occurred\n  // https://uploads-ssl.webflow.com/5ad71ffeb79acc67c8bcdaba/5ad8d1193a40977462982470_scalable-reward-distribution-paper.pdf\n  function withdrawRewards() external onlyCampaignReceivers {\n    RewardOwner storage rewardOwner = rewardOwners[campaignReceivers[msg.sender]];\n\n    uint prevIdx;\n    uint currentIdx = campaigns.length - 1;\n    if (rewardOwner.lastRewardAtCampaignIdx == 0) {\n      prevIdx = rewardOwner.enabledAtCampaignIdx;\n    } else {\n      prevIdx = rewardOwner.lastRewardAtCampaignIdx;\n    }\n\n    require(currentIdx > rewardOwner.enabledAtCampaignIdx, 'cannot withdraw until at least 1 more campaign has been created');\n    require(currentIdx > prevIdx, 'cannot withdraw until at least 1 more campaign has been created');\n\n    Campaign storage campaignJ = campaigns[currentIdx];\n\n    // new rewards added since last time this account withdrew\n    uint totalWei = (campaignJ.currentRewardsWei - campaigns[prevIdx].currentRewardsWei) / campaignJ.currentCampaignReceivers;\n\n    // NOTE: we first multiply by 10e8 so to retain precision, then later divide again\n    // NOTE: the multiplier logic is so that newcomers don't get all of the funds they COULD HAVE\n    //       this creates the situation where not all of the budget is used\n    // @TOOD: try to make this ETH recoverable or at least included in some other kind of pool\n    uint multiplier = ((currentIdx - rewardOwner.enabledAtCampaignIdx) * 10**8) / currentIdx;\n    uint rWei = (totalWei * multiplier) / 10**8;\n\n    // enforce a min before being able to withdraw (save gas)\n    require(rWei >= MIN_REWARDS_WITHDRAW_WEI, 'minimum to withdraw not met');\n\n    // enforce a min before being able to withdraw (save gas)\n    require(rWei <= address(this).balance, 'NOT ENOUGH CONTRACT FUNDS');\n\n    rewardOwner.lastRewardAtCampaignIdx = currentIdx;\n    rewardOwner.lastRewardWei = rWei;\n    rewardOwner.totalRewardsWei = rewardOwner.totalRewardsWei + rWei;\n    rewardsWithdrawnWei = rewardsWithdrawnWei + rWei;\n\n    msg.sender.transfer(rWei);\n  }\n\n  /**\n   * Creates a record for the token exchange\n   */\n  function _createCampaignRecord(\n    string memory _organization,\n    string memory _category,\n    string memory _title,\n    string memory _ipfsHash,\n    string memory _key\n  )\n    internal\n  {\n    // update total rewards\n    totalRewardsWei = totalRewardsWei + msg.value;\n\n    // add to storage and lookup\n    campaigns.push(Campaign({\n      creator: msg.sender,\n      organization: _organization,\n      category: _category,\n      title: _title,\n      ipfsHash: _ipfsHash,\n      key: _key,\n      budgetWei: msg.value,\n      createdAt: block.timestamp,\n      expiresAt: (block.timestamp + EXPIRES_IN_SECONDS),\n      isActive: true,\n      currentCampaignReceivers: totalCampaignReceivers,\n      currentRewardsWei: totalRewardsWei,\n      currentClaimedWei: rewardsWithdrawnWei\n    }));\n\n    activeCampaigns.push(campaigns.length - 1);\n    activeCampaignOwners[msg.sender] = campaigns.length - 1;\n\n    emit CampaignCreated(msg.sender, _organization, _title, totalRewardsWei);\n  }\n\n  // make a campaign inactive\n  function _removeActiveCampaignAt(uint _idx) internal {\n    require(_idx < activeCampaigns.length, 'out of range exception - _idx');\n    require(activeCampaigns[_idx] < campaigns.length, 'out of range exception - activeCampaigns[_idx]');\n    require(campaigns[activeCampaigns[_idx]].isActive == true, 'campaign must be active');\n\n    campaigns[activeCampaigns[_idx]].isActive = false;\n    activeCampaigns[_idx] = activeCampaigns[activeCampaigns.length - 1];\n    delete activeCampaigns[activeCampaigns.length - 1];\n  }\n\n  // remove reward owner data from storage\n  function _removeRewardOwnerAt(uint _idx) internal {\n    require(_idx < rewardOwners.length, 'out of range exception - _idx');\n\n    rewardOwners[_idx] = rewardOwners[rewardOwners.length - 1];\n    delete rewardOwners[rewardOwners.length - 1];\n  }\n\n  function _calculateRefundedBudget() internal view returns(uint) {\n    Campaign storage campaignI = campaigns[activeCampaignOwners[msg.sender]];\n    Campaign storage campaignJ = campaigns[campaigns.length - 1];\n\n    uint rewardsAvailable = campaignJ.currentRewardsWei - campaignI.currentRewardsWei;\n    uint multiplier = campaignI.budgetWei / rewardsAvailable; // wei given relative to total available\n    uint diffClaimed = campaignJ.currentClaimedWei - campaignI.currentClaimedWei; // wei claimed in between\n    return (rewardsAvailable - diffClaimed) * multiplier;\n  }\n}\n","sourcePath":"/Users/carlos/Desktop/imthatcarlos/dark-horse-mobility-contracts/contracts/MobilityCampaigns.sol","compiler":{"name":"solc","version":"0.6.0+commit.26b70077.Emscripten.clang"},"schemaVersion":"3.1.0","updatedAt":"2020-07-31T20:15:09.782Z","devdoc":{"details":"This contract manages the exchange of hbz tokens for Babylonia tokens, with a locking period in place before tokens can be claimed","methods":{},"title":"Babylon"},"userdoc":{"methods":{"constructor":"Contract constructor"}}}