{"contractName":"MobilityCampaigns","abi":[{"inputs":[],"stateMutability":"nonpayable","type":"constructor"},{"anonymous":false,"inputs":[{"indexed":false,"internalType":"address","name":"owner","type":"address"},{"indexed":true,"internalType":"uint256","name":"campaignId","type":"uint256"}],"name":"CampaignCompleted","type":"event"},{"anonymous":false,"inputs":[{"indexed":true,"internalType":"address","name":"owner","type":"address"},{"indexed":true,"internalType":"string","name":"organization","type":"string"},{"indexed":false,"internalType":"string","name":"title","type":"string"},{"indexed":false,"internalType":"uint256","name":"newTotalRewardsWei","type":"uint256"}],"name":"CampaignCreated","type":"event"},{"inputs":[],"name":"MIN_REWARDS_WITHDRAW_WEI","outputs":[{"internalType":"uint256","name":"","type":"uint256"}],"stateMutability":"view","type":"function"},{"inputs":[{"internalType":"address","name":"","type":"address"}],"name":"activeCampaignOwners","outputs":[{"internalType":"uint256","name":"","type":"uint256"}],"stateMutability":"view","type":"function"},{"inputs":[{"internalType":"address","name":"","type":"address"}],"name":"campaignReceivers","outputs":[{"internalType":"uint256","name":"","type":"uint256"}],"stateMutability":"view","type":"function"},{"inputs":[{"internalType":"address","name":"","type":"address"}],"name":"dataProviders","outputs":[{"internalType":"bool","name":"","type":"bool"}],"stateMutability":"view","type":"function"},{"inputs":[],"name":"graphIndexer","outputs":[{"internalType":"address","name":"","type":"address"}],"stateMutability":"view","type":"function"},{"inputs":[],"name":"totalCampaignReceivers","outputs":[{"internalType":"uint256","name":"","type":"uint256"}],"stateMutability":"view","type":"function"},{"inputs":[],"name":"totalDataProviders","outputs":[{"internalType":"uint256","name":"","type":"uint256"}],"stateMutability":"view","type":"function"},{"inputs":[],"name":"totalRewardsWei","outputs":[{"internalType":"uint256","name":"","type":"uint256"}],"stateMutability":"view","type":"function"},{"stateMutability":"payable","type":"receive"},{"inputs":[{"internalType":"string","name":"_organization","type":"string"},{"internalType":"string","name":"_category","type":"string"},{"internalType":"string","name":"_title","type":"string"},{"internalType":"string","name":"_ipfsHash","type":"string"},{"internalType":"string","name":"_key","type":"string"}],"name":"createCampaign","outputs":[],"stateMutability":"payable","type":"function"},{"inputs":[{"internalType":"address","name":"_a","type":"address"}],"name":"getReceiveCampaign","outputs":[{"internalType":"bool","name":"","type":"bool"}],"stateMutability":"view","type":"function"},{"inputs":[{"internalType":"address","name":"_a","type":"address"}],"name":"getProvideData","outputs":[{"internalType":"bool","name":"","type":"bool"}],"stateMutability":"view","type":"function"},{"inputs":[],"name":"enableNewUser","outputs":[],"stateMutability":"nonpayable","type":"function"},{"inputs":[],"name":"disableUser","outputs":[],"stateMutability":"nonpayable","type":"function"},{"inputs":[],"name":"getActiveCampaignId","outputs":[{"internalType":"uint256","name":"","type":"uint256"}],"stateMutability":"view","type":"function"},{"inputs":[],"name":"getActiveCampaign","outputs":[{"internalType":"string","name":"organization","type":"string"},{"internalType":"string","name":"category","type":"string"},{"internalType":"string","name":"title","type":"string"},{"internalType":"string","name":"ipfsHash","type":"string"},{"internalType":"uint256","name":"budgetWei","type":"uint256"},{"internalType":"uint256","name":"createdAt","type":"uint256"}],"stateMutability":"view","type":"function"},{"inputs":[],"name":"completeCampaign","outputs":[],"stateMutability":"nonpayable","type":"function"},{"inputs":[],"name":"getActiveCampaignIdsUsers","outputs":[{"internalType":"uint256[]","name":"","type":"uint256[]"}],"stateMutability":"view","type":"function"},{"inputs":[{"internalType":"uint256","name":"_id","type":"uint256"}],"name":"getActiveCampaignUsers","outputs":[{"internalType":"string","name":"organization","type":"string"},{"internalType":"string","name":"category","type":"string"},{"internalType":"string","name":"title","type":"string"},{"internalType":"string","name":"ipfsHash","type":"string"},{"internalType":"string","name":"key","type":"string"}],"stateMutability":"view","type":"function"},{"inputs":[],"name":"getCampaignsIndexer","outputs":[{"internalType":"string","name":"organization","type":"string"},{"internalType":"string","name":"category","type":"string"},{"internalType":"string","name":"title","type":"string"},{"internalType":"uint256","name":"createdAt","type":"uint256"}],"stateMutability":"view","type":"function"},{"inputs":[],"name":"withdrawRewards","outputs":[],"stateMutability":"nonpayable","type":"function"}],"bytecode":"0x6080604052670214e8348c4f00006007553480156200001d57600080fd5b50600060088190555060006009819055506002604051806101800160405280600073ffffffffffffffffffffffffffffffffffffffff16815260200160405180602001604052806000815250815260200160405180602001604052806000815250815260200160405180602001604052806000815250815260200160405180602001604052806000815250815260200160405180602001604052806000815250815260200160008152602001600081526020016000815260200160001515815260200160008152602001600081525090806001815401808255809150506001900390600052602060002090600c020160009091909190915060008201518160000160006101000a81548173ffffffffffffffffffffffffffffffffffffffff021916908373ffffffffffffffffffffffffffffffffffffffff16021790555060208201518160010190805190602001906200017a92919062000344565b5060408201518160020190805190602001906200019992919062000344565b506060820151816003019080519060200190620001b892919062000344565b506080820151816004019080519060200190620001d792919062000344565b5060a0820151816005019080519060200190620001f692919062000344565b5060c0820151816006015560e0820151816007015561010082015181600801556101208201518160090160006101000a81548160ff02191690831515021790555061014082015181600a015561016082015181600b0155505060036040518060c00160405280600073ffffffffffffffffffffffffffffffffffffffff168152602001600081526020016000815260200160008152602001600081526020016000815250908060018154018082558091505060019003906000526020600020906006020160009091909190915060008201518160000160006101000a81548173ffffffffffffffffffffffffffffffffffffffff021916908373ffffffffffffffffffffffffffffffffffffffff1602179055506020820151816001015560408201518160020155606082015181600301556080820151816004015560a082015181600501555050620003f3565b828054600181600116156101000203166002900490600052602060002090601f016020900481019282601f106200038757805160ff1916838001178555620003b8565b82800160010185558215620003b8579182015b82811115620003b75782518255916020019190600101906200039a565b5b509050620003c79190620003cb565b5090565b620003f091905b80821115620003ec576000816000905550600101620003d2565b5090565b90565b612dee80620004036000396000f3fe6080604052600436106101235760003560e01c806399f75bc2116100a0578063c0ffcdec11610064578063c0ffcdec14610d7f578063c36f628614610de8578063c7b8981c14610e3f578063e23750ff14610e56578063e77ab15914610e81576101cc565b806399f75bc214610a42578063b229967714610ca6578063b31ac35314610cd1578063b3e7d19214610cfc578063b7acb19c14610d68576101cc565b80635497e5cd116100e75780635497e5cd14610771578063780aac03146107da5780637b95a3f9146108435780638bd3a2b7146109b257806394e90fc114610a17576101cc565b80630108e977146101d157806310925a7c146101e8578063361be352146102135780633b807286146103f55780634cf8af9c1461045a576101cc565b366101cc57600073ffffffffffffffffffffffffffffffffffffffff163373ffffffffffffffffffffffffffffffffffffffff16146101ca576040517f08c379a00000000000000000000000000000000000000000000000000000000081526004018080602001828103825260118152602001807f6e6f7420616363657074696e672045544800000000000000000000000000000081525060200191505060405180910390fd5b005b600080fd5b3480156101dd57600080fd5b506101e6610e98565b005b3480156101f457600080fd5b506101fd6110ff565b6040518082815260200191505060405180910390f35b34801561021f57600080fd5b506102286111de565b604051808060200180602001806020018060200187815260200186815260200185810385528b818151815260200191508051906020019080838360005b83811015610280578082015181840152602081019050610265565b50505050905090810190601f1680156102ad5780820380516001836020036101000a031916815260200191505b5085810384528a818151815260200191508051906020019080838360005b838110156102e65780820151818401526020810190506102cb565b50505050905090810190601f1680156103135780820380516001836020036101000a031916815260200191505b50858103835289818151815260200191508051906020019080838360005b8381101561034c578082015181840152602081019050610331565b50505050905090810190601f1680156103795780820380516001836020036101000a031916815260200191505b50858103825288818151815260200191508051906020019080838360005b838110156103b2578082015181840152602081019050610397565b50505050905090810190601f1680156103df5780820380516001836020036101000a031916815260200191505b509a505050505050505050505060405180910390f35b34801561040157600080fd5b506104446004803603602081101561041857600080fd5b81019080803573ffffffffffffffffffffffffffffffffffffffff169060200190929190505050611571565b6040518082815260200191505060405180910390f35b61076f600480360360a081101561047057600080fd5b810190808035906020019064010000000081111561048d57600080fd5b82018360208201111561049f57600080fd5b803590602001918460018302840111640100000000831117156104c157600080fd5b91908080601f016020809104026020016040519081016040528093929190818152602001838380828437600081840152601f19601f8201169050808301925050505050505091929192908035906020019064010000000081111561052457600080fd5b82018360208201111561053657600080fd5b8035906020019184600183028401116401000000008311171561055857600080fd5b91908080601f016020809104026020016040519081016040528093929190818152602001838380828437600081840152601f19601f820116905080830192505050505050509192919290803590602001906401000000008111156105bb57600080fd5b8201836020820111156105cd57600080fd5b803590602001918460018302840111640100000000831117156105ef57600080fd5b91908080601f016020809104026020016040519081016040528093929190818152602001838380828437600081840152601f19601f8201169050808301925050505050505091929192908035906020019064010000000081111561065257600080fd5b82018360208201111561066457600080fd5b8035906020019184600183028401116401000000008311171561068657600080fd5b91908080601f016020809104026020016040519081016040528093929190818152602001838380828437600081840152601f19601f820116905080830192505050505050509192919290803590602001906401000000008111156106e957600080fd5b8201836020820111156106fb57600080fd5b8035906020019184600183028401116401000000008311171561071d57600080fd5b91908080601f016020809104026020016040519081016040528093929190818152602001838380828437600081840152601f19601f820116905080830192505050505050509192919290505050611589565b005b34801561077d57600080fd5b506107c06004803603602081101561079457600080fd5b81019080803573ffffffffffffffffffffffffffffffffffffffff1690602001909291905050506116ab565b604051808215151515815260200191505060405180910390f35b3480156107e657600080fd5b50610829600480360360208110156107fd57600080fd5b81019080803573ffffffffffffffffffffffffffffffffffffffff169060200190929190505050611701565b604051808215151515815260200191505060405180910390f35b34801561084f57600080fd5b50610858611721565b60405180806020018060200180602001858152602001848103845288818151815260200191508051906020019080838360005b838110156108a657808201518184015260208101905061088b565b50505050905090810190601f1680156108d35780820380516001836020036101000a031916815260200191505b50848103835287818151815260200191508051906020019080838360005b8381101561090c5780820151818401526020810190506108f1565b50505050905090810190601f1680156109395780820380516001836020036101000a031916815260200191505b50848103825286818151815260200191508051906020019080838360005b83811015610972578082015181840152602081019050610957565b50505050905090810190601f16801561099f5780820380516001836020036101000a031916815260200191505b5097505050505050505060405180910390f35b3480156109be57600080fd5b50610a01600480360360208110156109d557600080fd5b81019080803573ffffffffffffffffffffffffffffffffffffffff169060200190929190505050611a4a565b6040518082815260200191505060405180910390f35b348015610a2357600080fd5b50610a2c611a62565b6040518082815260200191505060405180910390f35b348015610a4e57600080fd5b50610a7b60048036036020811015610a6557600080fd5b8101908080359060200190929190505050611a68565b60405180806020018060200180602001806020018060200186810386528b818151815260200191508051906020019080838360005b83811015610acb578082015181840152602081019050610ab0565b50505050905090810190601f168015610af85780820380516001836020036101000a031916815260200191505b5086810385528a818151815260200191508051906020019080838360005b83811015610b31578082015181840152602081019050610b16565b50505050905090810190601f168015610b5e5780820380516001836020036101000a031916815260200191505b50868103845289818151815260200191508051906020019080838360005b83811015610b97578082015181840152602081019050610b7c565b50505050905090810190601f168015610bc45780820380516001836020036101000a031916815260200191505b50868103835288818151815260200191508051906020019080838360005b83811015610bfd578082015181840152602081019050610be2565b50505050905090810190601f168015610c2a5780820380516001836020036101000a031916815260200191505b50868103825287818151815260200191508051906020019080838360005b83811015610c63578082015181840152602081019050610c48565b50505050905090810190601f168015610c905780820380516001836020036101000a031916815260200191505b509a505050505050505050505060405180910390f35b348015610cb257600080fd5b50610cbb611e4c565b6040518082815260200191505060405180910390f35b348015610cdd57600080fd5b50610ce6611e52565b6040518082815260200191505060405180910390f35b348015610d0857600080fd5b50610d11611e58565b6040518080602001828103825283818151815260200191508051906020019060200280838360005b83811015610d54578082015181840152602081019050610d39565b505050509050019250505060405180910390f35b348015610d7457600080fd5b50610d7d611f48565b005b348015610d8b57600080fd5b50610dce60048036036020811015610da257600080fd5b81019080803573ffffffffffffffffffffffffffffffffffffffff1690602001909291905050506120ce565b604051808215151515815260200191505060405180910390f35b348015610df457600080fd5b50610dfd612119565b604051808273ffffffffffffffffffffffffffffffffffffffff1673ffffffffffffffffffffffffffffffffffffffff16815260200191505060405180910390f35b348015610e4b57600080fd5b50610e5461213e565b005b348015610e6257600080fd5b50610e6b6123cf565b6040518082815260200191505060405180910390f35b348015610e8d57600080fd5b50610e966123d5565b005b6000600560003373ffffffffffffffffffffffffffffffffffffffff1673ffffffffffffffffffffffffffffffffffffffff1681526020019081526020016000205414610f4d576040517f08c379a00000000000000000000000000000000000000000000000000000000081526004018080602001828103825260178152602001807f7573657220616c7265616479207265676973746572656400000000000000000081525060200191505060405180910390fd5b60036040518060c001604052803373ffffffffffffffffffffffffffffffffffffffff168152602001428152602001600160028054905003815260200160008152602001600081526020016000815250908060018154018082558091505060019003906000526020600020906006020160009091909190915060008201518160000160006101000a81548173ffffffffffffffffffffffffffffffffffffffff021916908373ffffffffffffffffffffffffffffffffffffffff1602179055506020820151816001015560408201518160020155606082015181600301556080820151816004015560a082015181600501555050600160038054905003600560003373ffffffffffffffffffffffffffffffffffffffff1673ffffffffffffffffffffffffffffffffffffffff168152602001908152602001600020819055506001600460003373ffffffffffffffffffffffffffffffffffffffff1673ffffffffffffffffffffffffffffffffffffffff16815260200190815260200160002060006101000a81548160ff021916908315150217905550600160085401600881905550600160095401600981905550565b600080600660003373ffffffffffffffffffffffffffffffffffffffff1673ffffffffffffffffffffffffffffffffffffffff168152602001908152602001600020541415611199576040517f08c379a0000000000000000000000000000000000000000000000000000000008152600401808060200182810382526024815260200180612d956024913960400191505060405180910390fd5b600660003373ffffffffffffffffffffffffffffffffffffffff1673ffffffffffffffffffffffffffffffffffffffff16815260200190815260200160002054905090565b6060806060806000806000600660003373ffffffffffffffffffffffffffffffffffffffff1673ffffffffffffffffffffffffffffffffffffffff168152602001908152602001600020541415611280576040517f08c379a0000000000000000000000000000000000000000000000000000000008152600401808060200182810382526024815260200180612d956024913960400191505060405180910390fd5b60006002600660003373ffffffffffffffffffffffffffffffffffffffff1673ffffffffffffffffffffffffffffffffffffffff16815260200190815260200160002054815481106112ce57fe5b90600052602060002090600c02019050806001018054600181600116156101000203166002900480601f0160208091040260200160405190810160405280929190818152602001828054600181600116156101000203166002900480156113765780601f1061134b57610100808354040283529160200191611376565b820191906000526020600020905b81548152906001019060200180831161135957829003601f168201915b50505050509650806002018054600181600116156101000203166002900480601f0160208091040260200160405190810160405280929190818152602001828054600181600116156101000203166002900480156114155780601f106113ea57610100808354040283529160200191611415565b820191906000526020600020905b8154815290600101906020018083116113f857829003601f168201915b50505050509550806003018054600181600116156101000203166002900480601f0160208091040260200160405190810160405280929190818152602001828054600181600116156101000203166002900480156114b45780601f10611489576101008083540402835291602001916114b4565b820191906000526020600020905b81548152906001019060200180831161149757829003601f168201915b50505050509450806004018054600181600116156101000203166002900480601f0160208091040260200160405190810160405280929190818152602001828054600181600116156101000203166002900480156115535780601f1061152857610100808354040283529160200191611553565b820191906000526020600020905b81548152906001019060200180831161153657829003601f168201915b50505050509350806006015492508060070154915050909192939495565b60056020528060005260406000206000915090505481565b6000600660003373ffffffffffffffffffffffffffffffffffffffff1673ffffffffffffffffffffffffffffffffffffffff1681526020019081526020016000205414611621576040517f08c379a0000000000000000000000000000000000000000000000000000000008152600401808060200182810382526026815260200180612d6f6026913960400191505060405180910390fd5b60003411611697576040517f08c379a000000000000000000000000000000000000000000000000000000000815260040180806020018281038252601c8152602001807f76616c7565206d7573742062652067726561746572207468616e20300000000081525060200191505060405180910390fd5b6116a485858585856124d4565b5050505050565b6000600460008373ffffffffffffffffffffffffffffffffffffffff1673ffffffffffffffffffffffffffffffffffffffff16815260200190815260200160002060009054906101000a900460ff169050919050565b60046020528060005260406000206000915054906101000a900460ff1681565b606080606060008060009054906101000a900473ffffffffffffffffffffffffffffffffffffffff1673ffffffffffffffffffffffffffffffffffffffff163373ffffffffffffffffffffffffffffffffffffffff16146117ea576040517f08c379a000000000000000000000000000000000000000000000000000000000815260040180806020018281038252601f8152602001807f6d73672e73656e646572206d757374206265206772617068496e64657865720081525060200191505060405180910390fd5b600060026001600660003373ffffffffffffffffffffffffffffffffffffffff1673ffffffffffffffffffffffffffffffffffffffff168152602001908152602001600020548154811061183a57fe5b90600052602060002001548154811061184f57fe5b90600052602060002090600c02019050806001018054600181600116156101000203166002900480601f0160208091040260200160405190810160405280929190818152602001828054600181600116156101000203166002900480156118f75780601f106118cc576101008083540402835291602001916118f7565b820191906000526020600020905b8154815290600101906020018083116118da57829003601f168201915b50505050509450806002018054600181600116156101000203166002900480601f0160208091040260200160405190810160405280929190818152602001828054600181600116156101000203166002900480156119965780601f1061196b57610100808354040283529160200191611996565b820191906000526020600020905b81548152906001019060200180831161197957829003601f168201915b50505050509350806003018054600181600116156101000203166002900480601f016020809104026020016040519081016040528092919081815260200182805460018160011615610100020316600290048015611a355780601f10611a0a57610100808354040283529160200191611a35565b820191906000526020600020905b815481529060010190602001808311611a1857829003601f168201915b50505050509250806007015491505090919293565b60066020528060005260406000206000915090505481565b60075481565b60608060608060606000600560003373ffffffffffffffffffffffffffffffffffffffff1673ffffffffffffffffffffffffffffffffffffffff1681526020019081526020016000205411611b08576040517f08c379a000000000000000000000000000000000000000000000000000000000815260040180806020018281038252602f815260200180612d12602f913960400191505060405180910390fd5b600060028781548110611b1757fe5b90600052602060002090600c02019050806001018054600181600116156101000203166002900480601f016020809104026020016040519081016040528092919081815260200182805460018160011615610100020316600290048015611bbf5780601f10611b9457610100808354040283529160200191611bbf565b820191906000526020600020905b815481529060010190602001808311611ba257829003601f168201915b50505050509550806002018054600181600116156101000203166002900480601f016020809104026020016040519081016040528092919081815260200182805460018160011615610100020316600290048015611c5e5780601f10611c3357610100808354040283529160200191611c5e565b820191906000526020600020905b815481529060010190602001808311611c4157829003601f168201915b50505050509450806003018054600181600116156101000203166002900480601f016020809104026020016040519081016040528092919081815260200182805460018160011615610100020316600290048015611cfd5780601f10611cd257610100808354040283529160200191611cfd565b820191906000526020600020905b815481529060010190602001808311611ce057829003601f168201915b50505050509350806004018054600181600116156101000203166002900480601f016020809104026020016040519081016040528092919081815260200182805460018160011615610100020316600290048015611d9c5780601f10611d7157610100808354040283529160200191611d9c565b820191906000526020600020905b815481529060010190602001808311611d7f57829003601f168201915b50505050509250806005018054600181600116156101000203166002900480601f016020809104026020016040519081016040528092919081815260200182805460018160011615610100020316600290048015611e3b5780601f10611e1057610100808354040283529160200191611e3b565b820191906000526020600020905b815481529060010190602001808311611e1e57829003601f168201915b505050505091505091939590929450565b60095481565b600a5481565b60606000600560003373ffffffffffffffffffffffffffffffffffffffff1673ffffffffffffffffffffffffffffffffffffffff1681526020019081526020016000205411611ef2576040517f08c379a000000000000000000000000000000000000000000000000000000000815260040180806020018281038252602f815260200180612d12602f913960400191505060405180910390fd5b6001805480602002602001604051908101604052809291908181526020018280548015611f3e57602002820191906000526020600020905b815481526020019060010190808311611f2a575b5050505050905090565b6000600660003373ffffffffffffffffffffffffffffffffffffffff1673ffffffffffffffffffffffffffffffffffffffff168152602001908152602001600020541415611fe1576040517f08c379a0000000000000000000000000000000000000000000000000000000008152600401808060200182810382526024815260200180612d956024913960400191505060405180910390fd5b612029600660003373ffffffffffffffffffffffffffffffffffffffff1673ffffffffffffffffffffffffffffffffffffffff1681526020019081526020016000205461284b565b600660003373ffffffffffffffffffffffffffffffffffffffff1673ffffffffffffffffffffffffffffffffffffffff168152602001908152602001600020547f8559b4dc0428ef20b1a5974fff4845e3163bfbec589128d75c7da62148fbd8ae33604051808273ffffffffffffffffffffffffffffffffffffffff1673ffffffffffffffffffffffffffffffffffffffff16815260200191505060405180910390a2565b600080600560008473ffffffffffffffffffffffffffffffffffffffff1673ffffffffffffffffffffffffffffffffffffffff16815260200190815260200160002054119050919050565b6000809054906101000a900473ffffffffffffffffffffffffffffffffffffffff1681565b6000600560003373ffffffffffffffffffffffffffffffffffffffff1673ffffffffffffffffffffffffffffffffffffffff16815260200190815260200160002054116121d6576040517f08c379a000000000000000000000000000000000000000000000000000000000815260040180806020018281038252602f815260200180612d12602f913960400191505060405180910390fd5b60006003600560003373ffffffffffffffffffffffffffffffffffffffff1673ffffffffffffffffffffffffffffffffffffffff168152602001908152602001600020548154811061222457fe5b90600052602060002090600602019050600080600160028054905003905060008360030154141561225b5782600201549150612263565b826003015491505b60006002838154811061227257fe5b90600052602060002090600c0201905060006002838154811061229157fe5b90600052602060002090600c02019050600082600b015482600b0154039050600084670de0b6b3a76400008860020154870302816122cb57fe5b0490506000670de0b6b3a7640000828402816122e357fe5b049050600754811161235d576040517f08c379a000000000000000000000000000000000000000000000000000000000815260040180806020018281038252601b8152602001807f6d696e696d756d20746f207769746864726177206e6f74206d6574000000000081525060200191505060405180910390fd5b8588600301819055508088600401819055508088600501540188600501819055503373ffffffffffffffffffffffffffffffffffffffff166108fc829081150290604051600060405180830381858888f193505050501580156123c4573d6000803e3d6000fd5b505050505050505050565b60085481565b6000600560003373ffffffffffffffffffffffffffffffffffffffff1673ffffffffffffffffffffffffffffffffffffffff168152602001908152602001600020541161248a576040517f08c379a00000000000000000000000000000000000000000000000000000000081526004018080602001828103825260138152602001807f75736572206e6f7420726567697374657265640000000000000000000000000081525060200191505060405180910390fd5b6124d2600560003373ffffffffffffffffffffffffffffffffffffffff1673ffffffffffffffffffffffffffffffffffffffff16815260200190815260200160002054612aa0565b565b60026040518061018001604052803373ffffffffffffffffffffffffffffffffffffffff168152602001878152602001868152602001858152602001848152602001838152602001348152602001428152602001600081526020016001151581526020016008548152602001600a5481525090806001815401808255809150506001900390600052602060002090600c020160009091909190915060008201518160000160006101000a81548173ffffffffffffffffffffffffffffffffffffffff021916908373ffffffffffffffffffffffffffffffffffffffff16021790555060208201518160010190805190602001906125d2929190612c6c565b5060408201518160020190805190602001906125ef929190612c6c565b50606082015181600301908051906020019061260c929190612c6c565b506080820151816004019080519060200190612629929190612c6c565b5060a0820151816005019080519060200190612646929190612c6c565b5060c0820151816006015560e0820151816007015561010082015181600801556101208201518160090160006101000a81548160ff02191690831515021790555061014082015181600a015561016082015181600b01555050600180600280549050039080600181540180825580915050600190039060005260206000200160009091909190915055600160028054905003600660003373ffffffffffffffffffffffffffffffffffffffff1673ffffffffffffffffffffffffffffffffffffffff1681526020019081526020016000208190555034600a5401600a81905550846040518082805190602001908083835b6020831061275a5780518252602082019150602081019050602083039250612737565b6001836020036101000a03801982511681845116808217855250505050505090500191505060405180910390203373ffffffffffffffffffffffffffffffffffffffff167ff52c9cc12e49f970500d74de364b9325a16b8da57f00c1497fba05167673577c85600a546040518080602001838152602001828103825284818151815260200191508051906020019080838360005b838110156128095780820151818401526020810190506127ee565b50505050905090810190601f1680156128365780820380516001836020036101000a031916815260200191505b50935050505060405180910390a35050505050565b60018054905081106128c5576040517f08c379a000000000000000000000000000000000000000000000000000000000815260040180806020018281038252601d8152602001807f6f7574206f662072616e676520657863657074696f6e202d205f69647800000081525060200191505060405180910390fd5b600280549050600182815481106128d857fe5b906000526020600020015410612939576040517f08c379a000000000000000000000000000000000000000000000000000000000815260040180806020018281038252602e815260200180612d41602e913960400191505060405180910390fd5b6001151560026001838154811061294c57fe5b90600052602060002001548154811061296157fe5b90600052602060002090600c020160090160009054906101000a900460ff161515146129f5576040517f08c379a00000000000000000000000000000000000000000000000000000000081526004018080602001828103825260178152602001807f63616d706169676e206d7573742062652061637469766500000000000000000081525060200191505060405180910390fd5b6000600260018381548110612a0657fe5b906000526020600020015481548110612a1b57fe5b90600052602060002090600c020160090160006101000a81548160ff02191690831515021790555060018080805490500381548110612a5657fe5b906000526020600020015460018281548110612a6e57fe5b906000526020600020018190555060018080805490500381548110612a8f57fe5b906000526020600020016000905550565b6003805490508110612b1a576040517f08c379a000000000000000000000000000000000000000000000000000000000815260040180806020018281038252601d8152602001807f6f7574206f662072616e676520657863657074696f6e202d205f69647800000081525060200191505060405180910390fd5b600360016003805490500381548110612b2f57fe5b906000526020600020906006020160038281548110612b4a57fe5b90600052602060002090600602016000820160009054906101000a900473ffffffffffffffffffffffffffffffffffffffff168160000160006101000a81548173ffffffffffffffffffffffffffffffffffffffff021916908373ffffffffffffffffffffffffffffffffffffffff1602179055506001820154816001015560028201548160020155600382015481600301556004820154816004015560058201548160050155905050600360016003805490500381548110612c0957fe5b9060005260206000209060060201600080820160006101000a81549073ffffffffffffffffffffffffffffffffffffffff021916905560018201600090556002820160009055600382016000905560048201600090556005820160009055505050565b828054600181600116156101000203166002900490600052602060002090601f016020900481019282601f10612cad57805160ff1916838001178555612cdb565b82800160010185558215612cdb579182015b82811115612cda578251825591602001919060010190612cbf565b5b509050612ce89190612cec565b5090565b612d0e91905b80821115612d0a576000816000905550600101612cf2565b5090565b9056fe6163636f756e74206d757374206861766520617070726f76656420746f20726563656976652063616d706169676e736f7574206f662072616e676520657863657074696f6e202d2061637469766543616d706169676e735b5f6964785d6163636f756e7420616c72656164792068617320616e206163746976652063616d706169676e6163636f756e74206d757374206861766520616e206163746976652063616d706169676ea264697066735822122068fa2fb62b1f5787c580066170487665241a59311cd0224c79998ea7ce1574fd64736f6c63430006000033","source":"// SPDX-License-Identifier: MIT\n\npragma solidity ^0.6.0;\n\nimport '@openzeppelin/contracts/math/SafeMath.sol';\n\n/**\n * @title Babylon\n *\n * @dev This contract manages the exchange of hbz tokens for Babylonia tokens, with a locking period\n * in place before tokens can be claimed\n */\ncontract MobilityCampaigns {\n  using SafeMath for uint256;\n\n  event CampaignCreated(address indexed owner, string indexed organization, string title, uint newTotalRewardsWei);\n  event CampaignCompleted(address owner, uint indexed campaignId);\n\n  struct Campaign {\n    address creator;      // the address of the creator\n    string organization;\n    string category;\n    string title;\n    string ipfsHash;\n    string key;\n    uint budgetWei;\n    uint createdAt;                // datetime created\n    uint expiresAt;                // datetime when no longer valid\n    bool isActive;                 // set to false when no longer active\n    uint currentCampaignReceivers; // how many users receiving ads at time of creation\n    uint currentRewardsWei;        // how much wei for rewards at time of creation (excluding this one)\n  }\n\n  struct RewardOwner {\n    address owner;\n    uint enabledAt;\n    uint enabledAtCampaignIdx;    // fetch all campaigns > this idx\n    uint lastRewardAtCampaignIdx;\n    uint lastRewardWei;\n    uint totalRewardsWei;\n  }\n\n  address public graphIndexer;\n  uint[] private activeCampaigns;\n  Campaign[] private campaigns;\n  RewardOwner[] private rewardOwners;\n\n  mapping(address => bool) public dataProviders; // mapping of accounts that share data\n  mapping(address => uint) public campaignReceivers; // mapping of accounts that receive campaigns to their rewards data\n  mapping(address => uint) public activeCampaignOwners; // mapping of accounts that own campaigns (idx to activeCampaigns)\n\n  uint public MIN_REWARDS_WITHDRAW_WEI = 150000000000000000; // 0.15 ETH\n  uint public totalCampaignReceivers;\n  uint public totalDataProviders;\n  uint public totalRewardsWei;\n\n  modifier onlyGraphIndexer() {\n    require(msg.sender == graphIndexer, 'msg.sender must be graphIndexer');\n    _;\n  }\n\n  modifier onlyCampaignReceivers() {\n    require(campaignReceivers[msg.sender] > 0, 'account must have approved to receive campaigns');\n    _;\n  }\n\n  modifier onlyActiveCampaignOwners() {\n    require(activeCampaignOwners[msg.sender] != 0, 'account must have an active campaign');\n    _;\n  }\n\n  modifier noActiveCampaign() {\n    require(activeCampaignOwners[msg.sender] == 0, 'account already has an active campaign');\n    _;\n  }\n\n  /**\n   * Contract constructor\n   */\n  constructor() public {\n    // indexing service The Graph\n    // graphIndexer = _graphIndexer;\n\n    totalCampaignReceivers = 0;\n    totalDataProviders = 0;\n\n    // take care of zero-index for storage arrays\n    campaigns.push(Campaign({\n      creator: address(0),\n      organization: '',\n      category: '',\n      title: '',\n      ipfsHash: '',\n      key: '',\n      budgetWei: 0,\n      createdAt: 0,\n      expiresAt: 0,\n      isActive: false,\n      currentCampaignReceivers: 0,\n      currentRewardsWei: 0\n    }));\n\n    rewardOwners.push(RewardOwner({\n      owner: address(0),\n      enabledAt: 0,\n      enabledAtCampaignIdx: 0,\n      lastRewardAtCampaignIdx: 0,\n      lastRewardWei: 0,\n      totalRewardsWei: 0\n    }));\n  }\n\n  /**\n   * Do not accept ETH\n   */\n  receive() external payable {\n    require(msg.sender == address(0), 'not accepting ETH');\n  }\n\n  // creator must send info + ETH\n  function createCampaign(\n    string memory _organization,\n    string memory _category,\n    string memory _title,\n    string memory _ipfsHash,\n    string memory _key\n  ) public\n    payable\n    noActiveCampaign\n  {\n    // assert budget\n    require(msg.value > 0, 'value must be greater than 0');\n\n    // @TODO: set expiredAt\n\n    // create record in storage, update lookup arrays\n    _createCampaignRecord(\n      _organization,\n      _category,\n      _title,\n      _ipfsHash,\n      _key\n    );\n  }\n\n  function getReceiveCampaign(address _a) public view returns (bool) {\n    return campaignReceivers[_a] > 0;\n  }\n\n  function getProvideData(address _a) public view returns (bool) {\n    return dataProviders[_a];\n  }\n\n  function enableNewUser() external {\n    // sanity check\n    require(campaignReceivers[msg.sender] == 0, 'user already registered');\n\n    // add to storage and lookup\n    rewardOwners.push(RewardOwner({\n      owner: msg.sender,\n      enabledAt: block.timestamp,\n      enabledAtCampaignIdx: (campaigns.length - 1), // [bogus, real, real2]\n      lastRewardAtCampaignIdx: 0,\n      lastRewardWei: 0,\n      totalRewardsWei: 0\n    }));\n\n    campaignReceivers[msg.sender] = rewardOwners.length - 1;\n    dataProviders[msg.sender] = true;\n\n    totalCampaignReceivers = totalCampaignReceivers + 1;\n    totalDataProviders = totalDataProviders + 1;\n  }\n\n  function disableUser() external {\n    // sanity check\n    require(campaignReceivers[msg.sender] > 0, 'user not registered');\n\n    _removeRewardOwnerAt(campaignReceivers[msg.sender]);\n  }\n\n  // return active campaign id for owners\n  function getActiveCampaignId()\n    external\n    view\n    onlyActiveCampaignOwners\n    returns(uint)\n  {\n    return activeCampaignOwners[msg.sender];\n  }\n\n  // return active campaign for owners\n  function getActiveCampaign()\n    external\n    view\n    onlyActiveCampaignOwners\n    returns(\n      string memory organization,\n      string memory category,\n      string memory title,\n      string memory ipfsHash,\n      uint budgetWei,\n      uint createdAt\n    )\n  {\n    Campaign storage campaign = campaigns[activeCampaignOwners[msg.sender]];\n    organization = campaign.organization;\n    category = campaign.category;\n    title = campaign.title;\n    ipfsHash = campaign.ipfsHash;\n    budgetWei = campaign.budgetWei;\n    createdAt = campaign.createdAt;\n  }\n\n  function completeCampaign()\n    external\n    onlyActiveCampaignOwners\n  {\n    _removeActiveCampaignAt(activeCampaignOwners[msg.sender]);\n\n    emit CampaignCompleted(msg.sender, activeCampaignOwners[msg.sender]);\n  }\n\n  // return active campaign ids for receivers\n  function getActiveCampaignIdsUsers()\n    external\n    view\n    onlyCampaignReceivers\n    returns(uint[] memory)\n  {\n    return activeCampaigns;\n  }\n\n\n  // return campaign for owners\n  function getActiveCampaignUsers(uint _id)\n    external\n    view\n    onlyCampaignReceivers\n    returns(\n      string memory organization,\n      string memory category,\n      string memory title,\n      string memory ipfsHash,\n      string memory key\n    )\n  {\n    Campaign storage campaign = campaigns[_id];\n    organization = campaign.organization;\n    category = campaign.category;\n    title = campaign.title;\n    ipfsHash = campaign.ipfsHash;\n    key = campaign.key;\n  }\n\n  // return active campaigns\n  function getCampaignsIndexer()\n    external\n    view\n    onlyGraphIndexer\n    returns(\n      string memory organization,\n      string memory category,\n      string memory title,\n      uint createdAt\n    )\n  {\n    Campaign storage campaign = campaigns[activeCampaigns[activeCampaignOwners[msg.sender]]];\n    organization = campaign.organization;\n    category = campaign.category;\n    title = campaign.title;\n    createdAt = campaign.createdAt;\n  }\n\n  // allows users to withdraw their rewards based on the number of campaigns that have occurred\n  // https://uploads-ssl.webflow.com/5ad71ffeb79acc67c8bcdaba/5ad8d1193a40977462982470_scalable-reward-distribution-paper.pdf\n  function withdrawRewards() external onlyCampaignReceivers {\n    RewardOwner storage rewardOwner = rewardOwners[campaignReceivers[msg.sender]];\n\n    uint prevIdx;\n    uint currentIdx = campaigns.length - 1;\n    if (rewardOwner.lastRewardAtCampaignIdx == 0) {\n      prevIdx = rewardOwner.enabledAtCampaignIdx;\n    } else {\n      prevIdx = rewardOwner.lastRewardAtCampaignIdx;\n    }\n\n    Campaign storage campaignI = campaigns[prevIdx];\n    Campaign storage campaignJ = campaigns[currentIdx];\n\n    // new rewards added since last time this account withdrew\n    uint totalWei = campaignJ.currentRewardsWei - campaignI.currentRewardsWei;\n    // * NOTE: we first multiply by 10e18 so to retain precision, and later divide by 10e18 to get the real value\n    uint weight = ((currentIdx - rewardOwner.enabledAtCampaignIdx) * 10**18) / currentIdx;\n    uint rWei = (totalWei * weight) / 10**18;\n\n    // enforce a min before being able to withdraw (save gas)\n    require(rWei > MIN_REWARDS_WITHDRAW_WEI, 'minimum to withdraw not met');\n\n    rewardOwner.lastRewardAtCampaignIdx = currentIdx;\n    rewardOwner.lastRewardWei = rWei;\n    rewardOwner.totalRewardsWei = rewardOwner.totalRewardsWei + rWei;\n\n    msg.sender.transfer(rWei);\n  }\n\n  /**\n   * Creates a record for the token exchange\n   */\n  function _createCampaignRecord(\n    string memory _organization,\n    string memory _category,\n    string memory _title,\n    string memory _ipfsHash,\n    string memory _key\n  )\n    internal\n  {\n    // add to storage and lookup\n    campaigns.push(Campaign({\n      creator: msg.sender,\n      organization: _organization,\n      category: _category,\n      title: _title,\n      ipfsHash: _ipfsHash,\n      key: _key,\n      budgetWei: msg.value,\n      createdAt: block.timestamp, // solium-disable-line security/no-block-members, whitespace\n      expiresAt: 0, // @TODO:\n      isActive: true,\n      currentCampaignReceivers: totalCampaignReceivers,\n      currentRewardsWei: totalRewardsWei\n    }));\n\n    activeCampaigns.push(campaigns.length - 1);\n    activeCampaignOwners[msg.sender] = campaigns.length - 1;\n\n    // update total rewards\n    totalRewardsWei = totalRewardsWei + msg.value;\n\n    emit CampaignCreated(msg.sender, _organization, _title, totalRewardsWei);\n  }\n\n  // make a campaign inactive\n  function _removeActiveCampaignAt(uint _idx) internal {\n    require(_idx < activeCampaigns.length, 'out of range exception - _idx');\n    require(activeCampaigns[_idx] < campaigns.length, 'out of range exception - activeCampaigns[_idx]');\n    require(campaigns[activeCampaigns[_idx]].isActive == true, 'campaign must be active');\n\n    campaigns[activeCampaigns[_idx]].isActive = false;\n    activeCampaigns[_idx] = activeCampaigns[activeCampaigns.length - 1];\n    delete activeCampaigns[activeCampaigns.length - 1];\n  }\n\n  // remove reward owner data from storage\n  function _removeRewardOwnerAt(uint _idx) internal {\n    require(_idx < rewardOwners.length, 'out of range exception - _idx');\n\n    rewardOwners[_idx] = rewardOwners[rewardOwners.length - 1];\n    delete rewardOwners[rewardOwners.length - 1];\n  }\n}\n","sourcePath":"/Users/carlos/Desktop/imthatcarlos/dark-horse-mobility-contracts/contracts/MobilityCampaigns.sol","compiler":{"name":"solc","version":"0.6.0+commit.26b70077.Emscripten.clang"},"schemaVersion":"3.1.0","updatedAt":"2020-07-30T21:11:00.729Z","devdoc":{"details":"This contract manages the exchange of hbz tokens for Babylonia tokens, with a locking period in place before tokens can be claimed","methods":{},"title":"Babylon"},"userdoc":{"methods":{"constructor":"Contract constructor"}}}